:020000040800F2
:10000000A0D40020E1030008116100089557000802
:100010000D610008C1220008F593000800000000EF
:1000200000000000000000000000000021030008A4
:1000300045250008000000007D03000857690008FE
:10004000FB030008FB030008FB030008FB03000898
:10005000FB030008FB030008FB030008FB03000888
:10006000FB030008FB030008FB030008FB03000878
:10007000FB030008FB030008FB030008FB03000868
:10008000FB030008FB030008FB030008FB03000858
:10009000FB030008FB030008FB030008FB03000848
:1000A000FB030008FB030008FB030008FB03000838
:1000B000FB030008FB030008FB030008FB03000828
:1000C000FB030008FB030008FB030008FB03000818
:1000D000FB03000821700008FB030008FB03000875
:1000E000FB030008FB030008FB030008FB030008F8
:1000F000FB030008396A0008FB030008FB03000843
:10010000FB030008FB030008FB030008FB030008D7
:10011000FB030008FB030008FB030008FB030008C7
:10012000FB030008FB030008FB030008FB030008B7
:10013000FB030008FB030008FB030008FB030008A7
:10014000FB030008FB030008FB030008156100081F
:10015000FB030008FB030008AD230008FB030008B5
:10016000FB030008FB030008FB030008FB03000877
:10017000FB030008FB030008FB030008000000006D
:10018000FB030008FB03000800F002F800F0B8F8D9
:100190000AA090E8000C82448344AAF10107DA45E2
:1001A00001D100F0ADF8AFF2090EBAE80F0013F07C
:1001B000010F18BFFB1A43F0010318476421010027
:1001C000842101000A444FF0000C10F8013B13F0A9
:1001D000070408BF10F8014B1D1108BF10F8015BA0
:1001E000641E05D010F8016B641E01F8016BF9D193
:1001F00013F0080F1EBF10F8014BAD1C0C1B09D1EA
:100200006D1E58BF01F801CBFAD505E014F8016B5B
:1002100001F8016B6D1EF9D59142D6D370470000ED
:100220000023002400250026103A28BF78C1FBD8FF
:10023000520728BF30C148BF0B6070476E2900F0DD
:100240001D85702900F05F86662911F0B08365294D
:1002500011F0AD83672911F0AA83612911F0A983F8
:1002600003681B0A28BF41F08001692900F014824D
:10027000642900F01182752900F00E826F2900F0C8
:10028000EC85782900F02B86E92900F08785E429A0
:1002900000F08485F52900F08185EF2900F0E985DB
:1002A000F82900F02A860368DB0928BF41F08001A5
:1002B000632901F05B82732901F06082E32901F078
:1002C0006B82F32901F07082002070471FB511F096
:1002D00064FB9DE8030000F0D5FB01F0E1FA0400A7
:1002E0000020002110F022F9401C60600020002155
:1002F00010F006F9E06000F097FB1FBD10B510BDCF
:1003000001F0A1FA1146FFF7E1FF0DF024FF01F023
:100310007DFB03B4FFF7F2FF03BC01F08DFA000090
:100320002C4B19680868B0E8F04F80F30988BFF3D8
:100330006F8F4FF0000080F31188704700000000BD
:1003400008480068006880F308884FF0000080F3D8
:10035000148862B661B6BFF34F8FBFF36F8F00DFB3
:1003600000BF00BF08ED00E0DFF80C00016841F4B9
:1003700070010160704700BF88ED00E0EFF3098075
:10038000BFF36F8F134B1A681EF0100F08BF20EDDC
:10039000108A20E9F04F106009B44FF0500080F34C
:1003A0001188BFF34F8FBFF36F8F0FF0A5F94FF098
:1003B000000080F3118809BC19680868B0E8F04FA4
:1003C0001EF0100F08BFB0EC108A80F30988BFF34D
:1003D0006F8F704790000020EFF30580704700009A
:1003E0000948804709480047FEE7FEE7FEE7FEE7C9
:1003F000FEE7FEE7FEE7FEE7FEE7FEE70448054905
:10040000054A064B70470000256A0008890100086C
:10041000A0940020A0D40020A0B40020A0B400200C
:1004200070B5064600F012FB056806F10B0020F0DF
:100430000704B4429CBF002070BD2B466A68BAB165
:100440001068A04210D304F1080188423CBF5068F4
:10045000586007D35168101941601168091B016089
:1004600058601460101D70BD13465268002AE7D111
:100470002146284600F0F2FA0028DED170BD70B5A2
:100480000446051F00F0E2FA0068002C14BF44681F
:1004900070BD002C18BFAC423CBF20466468F8D346
:1004A00001680A18AA4218BF456003D12A680546A8
:1004B0001144016028684119A1421CBF6C6070BDE5
:1004C0006168696021680844286070BD70B50D4698
:1004D0000646041F00F0BAFAD0F800C0C5B1E6B174
:1004E00005F10B0020F00703AB423CBF002070BDBC
:1004F0002068984238BFDCF8042013D3C11A0829B9
:100500002FD3E01840F8041B2360FFF7B8FF28E062
:100510003046FFF7B4FF002070BD2846BDE87040AC
:10052000FFF77EBF002A18BFA2423CBF9446526824
:10053000F8D30119914216D111680844984212D398
:10054000C11A08293CBF2060506808D35168E018E0
:100550004160216812681144C91A01602360CCF817
:100560000400201D70BD181FFFF75AFF050007D0BB
:1005700021680A1F211D00F0F3F9201DFFF77FFFFE
:10058000284670BD53EA020C00F069802DE9F04B5B
:100590004FF00006002B1FBFB3FA83F503FA05F4F2
:1005A00024FA05F65E4012BF1643B2FA82F502FA4B
:1005B00005F4C5F120051EBF22FA05FC44EA0C042F
:1005C000203556EA044C4FEA144418BF641C4FF01F
:1005D00000084FF00009904271EB030C39D3002959
:1005E00019BFB1FA81F701FA07F6B0FA80F700FAFD
:1005F00007F6C7F120071EBF20FA07FC46EA0C06E3
:100600002037B6FBF4FCA7EB0507103F07F01F0BE4
:10061000CBF120060CFA0BFB2CFA06F644BFB346CE
:100620000026202FA4BF5E464FF0000B5BEA060CAD
:1006300008BF4FF0010B19EB0B09ABFB027C48EB39
:100640000608C01B06FB02CC0BFB03CC71EB0C01B4
:10065000C1E70B46024641464846BDE8F08B13B55C
:100660004FF000004FF00001AFF30080BDE81C40E8
:10067000704700001CB50C46064B7B446946009051
:10068000204600F014FB04460020694600F022FBDF
:1006900020461CBD570600002DE9F0410646002407
:1006A00010687529314616A510D000F053FA0028BD
:1006B00002DA404213A507E031688A0701D512A586
:1006C00002E0490704D511A5012401E000F04BFA2E
:1006D00000210A2206F1240709E0B0FBF2FCB0FB7E
:1006E000F2F302FB1C00303078541846491C0028F5
:1006F000F3D123462A463046BDE8F04100F065BA02
:10070000000000002D0000002B0000002000000071
:100710002DE9F05F894604464FF0000ADFF874B116
:10072000FB44C0F820A02046E1688847002874D028
:10073000252806D0D4E901219047206A401C206278
:10074000F1E700265F462046E168884720280546F5
:1007500007DB312D05D2781910F8200C08B10643BB
:10076000F1E7B00701D526F00406C4F81CA0002765
:10077000C4F818A02A2D09D028460DF03DFB38B347
:1007800004EB8708303DC8F8185019E059F8041BED
:10079000204604EB87029161E1688847012F0546F6
:1007A00018D1E069002820DA26F020061DE0D8F8EC
:1007B000180000EB800005EB40003038C8F8180046
:1007C0002046E168884705460DF016FB0028EED16B
:1007D000012F0AD02E2D08D12046E16888477F1CC2
:1007E0000546022F46F02006C4DBA069002803DA84
:1007F000404246F00106A061F00701D026F0100645
:100800006C2D0BD0682D09D04C2D39D06A2D35D0E8
:10081000742D35D07A2D33D016E038E0E1682F46BC
:1008200020468847B842054609D16C2F26D04FF4A0
:100830008060E168064320468847054604E06C2F47
:100840001AD04FF4807006430DB3A5F1410019286A
:1008500002D8203546F400664A46294620462660DE
:100860004E46FFF7EBFC80B101280BD0F61D26F0B9
:10087000070000F1080956E74020E4E78020D8E7A8
:100880000020D6E706F104094DE7284652E7206A22
:10089000BDE8F09F5014010010B5431C02E010F8B1
:1008A000011B71B18107FAD14FF0013202C88C1AD5
:1008B0008C4314EAC211F9D0C01A0A0603D0C01E34
:1008C00010BDC01A10BD0A0401D0801E10BD09025F
:1008D000FCD0401E10BD032A40F2308010F0030C03
:1008E00000F0158011F8013BBCF1020F624498BF83
:1008F00011F801CB00F8013B38BF11F8013BA2F120
:10090000040298BF00F801CB38BF00F8013B11F09A
:10091000030300F02580083AC0F0088051F8043B3A
:10092000083A51F804CBA0E80810F5E7121D5CBFA7
:1009300051F8043B40F8043BAFF30080D20724BFDA
:1009400011F8013B11F801CB48BF11F8012B24BF6E
:1009500000F8013B00F801CB48BF00F8012B7047BD
:1009600010B5203AC0F00B80B1E81850203AA0E84A
:100970001850B1E81850A0E81850BFF4F5AF5FEA7E
:10098000027C24BFB1E81850A0E8185044BF18C931
:1009900018C0BDE810405FEA827C24BF51F8043BD8
:1009A00040F8043B08BF7047D20728BF31F8023B2C
:1009B00048BF11F8012B28BF20F8023B48BF00F8C0
:1009C000012B704702F0FF0343EA032242EA02428E
:1009D00000F0ADBA4FF0000200B5134694469646BB
:1009E000203922BFA0E80C50A0E80C50B1F1200142
:1009F000BFF4F7AF090728BFA0E80C5048BF0CC0F0
:100A00005DF804EB890028BF40F8042B08BF70474D
:100A100048BF20F8022B11F0804F18BF00F8012BBF
:100A2000704770477047704770B5064C7C44064D60
:100A30007D4403E0206820448047241DAC42F9D166
:100A400070BD00003C1A01003C1A010000487047CC
:100A500044940020704770477047704738B504468B
:100A60000A4600206946AFF30080002808BF38BD61
:100A700002460099204600F083FA012038BD01208B
:100A800000F0BBBEF8B5AFF30080054600200C4671
:100A9000102000BF0646A819A0420DD9324669466B
:100AA0000020AFF30080070008BF00F0A6FE00980A
:100AB000A04218BF0546C419FFF7C8FF05600746E6
:100AC000F01D20F007004619284600F00AF8B4424D
:100AD00008BFF8BDA21B31463868BDE8F84000F0F9
:100AE0004FBA00210160C0E9011070471020704723
:100AF00010B500F041FA006810BD10B5044600F0D2
:100B00003BFA046010BD70B5044685690068C106F3
:100B100001D5302600E02026C00707D070BDD4E9FB
:100B2000012130469047206A401C20626D1EF6D598
:100B300070BD70B5044685690078C00707D170BDE7
:100B4000D4E9012120209047206A401C20626D1EBC
:100B5000F6D570BD09684A0501D540B27047C90590
:100B6000FCD500B2704709684A0501D5C0B270478C
:100B7000C905FCD580B2704770B50C460546012A00
:100B800005D02878800600D5EA69002302E0012319
:100B900005E05B1C934202D2E05C0028F9D1A86911
:100BA000E618C01AA861286A184428622846FFF788
:100BB000AAFF04E0D5E9012114F8010B9047B442E3
:100BC000F8D32846FFF7B5FF70BD2DE9F0470D4675
:100BD00099469246044600F124080168880604D527
:100BE000E06921F01001216000E00120A84201DD50
:100BF000471B00E00027A1697A1902EB0900081AD7
:100C0000A0612078C00602D42046FFF77CFF0026B2
:100C100008E0D4E901211AF806009047206A401C38
:100C2000761C20624E45F4DB2078C0060AD52046AB
:100C3000FFF769FF06E0D4E9012130209047206AE0
:100C4000401C2062381EA7F10107F4DC07E0D4E95C
:100C5000012118F805009047206A401C2062281ED8
:100C6000A5F10105F3DC2046FFF763FF20780006BD
:100C700002D50220BDE8F0870120FBE71168026879
:100C8000006A530501D508700AE0D30501D5088034
:100C900006E0130603D5C217C1E9000200E00860B0
:100CA0000120704701694A1C02610878704700B54D
:100CB0008FB0CDE901310021059105497944CDE995
:100CC000031011466846FFF723FD0FB000BD00007A
:100CD000E5FFFFFF0A6802F8010B0A607047000099
:100CE0002DE9FF5F15468A460446DFF8AC80F844DC
:100CF0000027D8E900103E46CDE9001010E03AF890
:100D000016106A4602A800F053FD411C07D0217856
:100D1000890603D5E269391891420DD80744761C3B
:100D20002078800602D5E069B84205DDAE42E6DBF8
:100D30003AF816000028E2D1A069C01BA061204645
:100D4000FFF7E1FED8E90010CDE90010002017E020
:100D50003AF818106A4602A800F02AFDB0F1FF3FE9
:100D600081460BD000250DF1080B05E0D4E90121E7
:100D70001BF8050090476D1C4D45F7D308F10100A5
:100D8000B0428046E4DB206A384420622046FFF708
:100D9000D0FEBDE8FF9F0000D60F01002DE9F04115
:100DA0008046D21D22F007020025D2E90002F52973
:100DB00015A614D0011E72F1000106DA0023D0EB53
:100DC000030063EB020211A608E0D8F800108B07BD
:100DD00001D50FA602E0490701D50EA6012511464F
:100DE000002408F1240704E000F0E4F830323A551A
:100DF000641C50EA0102F7D12B4632462146404698
:100E0000BDE8F041FFF7E1BE000000002D0000004A
:100E10002B0000002000000030B4002100F1240469
:100E200008E002F00705D208303542EA4372DB08D9
:100E30006554491C52EA0305F3D10468002310A24B
:100E4000250707D5A40600D421B1C46901230DA24A
:100E5000641EC46130BCFFF7B8BE10B5044621461D
:100E60001068FFF780FE02462046BDE810400023D0
:100E7000D2E7D21D22F00701D1E90023CCE7000020
:100E80000000000030000000F0B40D4601880905A4
:100E900002D5214C7C4402E01F4C7C440E340021DE
:100EA00000F1240608E002F00F071209E75D42EAAC
:100EB00003721B097754491C52EA0307F3D10278E5
:100EC0000023120704D5702D06D009B10223113476
:100ED0002246F0BCFFF779BE01231034F8E770B565
:100EE00004460D4621461068FFF73DFE024629469E
:100EF0002046BDE870400023C6E7D21D22F007035C
:100F0000D3E90023C0E70368126843F020030360BD
:100F10000823C3610023B7E7380E010010B500F0C5
:100F200073FCBDE8104000F063BC4FF000020429E0
:100F3000C0F0128010F0030C3FF44EADCCF1040C65
:100F4000BCF1020F18BF00F8012BA8BF20F8022B3C
:100F5000A1EB0C01FFF740BD5FEAC17C24BF00F8A4
:100F6000012B00F8012B48BF00F8012B704700004F
:100F7000004870473C940020004870473C94002093
:100F8000034640688C46002818BF88423CBF034691
:100F90004068F8D318681844884207D00CF1030061
:100FA00020F00700001D411A521A0146081D0A6070
:100FB000FFF765BA30B5B0F10A024FEA900E71F151
:100FC00000034EEA817EB0EB0E0061EB91014FEA27
:100FD000101E4EEA017E10EB0E0041EB11114FEA9C
:100FE000102E4EEA016E10EB0E0041EB11214FEA7C
:100FF000104E4EEA014E10EB0E0041EB114140182D
:1010000041F100014FEAD00040EA41704FEAD101BE
:1010100010EB80054FEA810444EA907444EB01042C
:101020006D1944EB0404521BA3414FF0000348BF69
:101030000A3200D530BD401C41F1000130BD70477F
:101040002DE9FF4F0C461E464FF0FF378BB0D2E91B
:101050000001DDF860800A908A46C1F30A5505B99F
:101060003D46002108464FF00000BAF1000F00F4A1
:10107000400005DA00EB80004FF4400101EA500027
:101080004FEA9059B9F1010F00DDB9460A9850EACC
:101090004A000ED044F61050A5F2FF3545432F14F8
:1010A000B8F1000F1ED07542291E1EDDC9F10002E5
:1010B0001CE0B8F1010F4FF0000001D0302103E037
:1010C000F24305E02154401CB042FBDB30460022D5
:1010D000002121540B99C1F80880C1E900200FB00C
:1010E000BDE8F08FBD1B6D1CDEE74A4600DA6942A1
:1010F00006A800F019FC06AB93E8070003AB83E8F1
:10110000070050460A9900F013FD8DE80700A0F58E
:1011100000501F3800900398002D0ADD42F21F0195
:101120004A460844002303A90390684600F07CFF68
:1011300009E0A0F500504A461F38002303A9039098
:10114000684600F086FF8DE807000004000C03D01D
:101150004FF0FF30410800E01046B8F1000F03D017
:101160000022009215461EE0751E05D4FFF722FFEF
:10117000303262556D1EF9D5B3460122084302D0C4
:1011800000227F1C04E02078302801D100227F1E3D
:10119000002A099784D01DE0112D07DAFFF70AFF16
:1011A000303262556D1C50EA0102F5D1084302D07D
:1011B0000098C8B10EE00021681E05E0235C625C67
:1011C00063542254401E491C8142F7DBAB46A81BE6
:1011D000401E0990002004F80B000B98099AC0F8F3
:1011E0000880C0E9002B7AE711264FF0000857E786
:1011F0002DE9F04F88460446D21D22F0070191B038
:10120000D1E90001CDE90A010BF0AAFB02460B98D7
:10121000C00F01D02D2007E02068810701D52B20C9
:1012200002E0202101EAC000032A099001D0072A28
:1012300005DB03464146204600F036FB0BE12078F3
:10124000800601D5E06900E00620B8F1650F81460F
:1012500006D0B8F1660F18D0B8F1670F70D131E041
:101260000020B9F1110F009001DB112301E009F119
:1012700001030AAA01A90CA8FFF7E2FEDDE90C7040
:10128000002609F10105834647E001204B46009006
:101290004FF000470AAA01A90CA8FFF7D1FEDDE92B
:1012A0000DB00C995D46002610B909F101000D182A
:1012B000B9EB050003D4C0F1FF3609F10105A5EB38
:1012C00009002BE0B9F1010F01DA4FF0010900200C
:1012D000B9F1110F0090484601DD112300E00346EB
:1012E0000AAA01A90CA8FFF7ABFEDDE90C704D4678
:1012F00000268346207800070AD4AB4500DA5D4615
:1013000001A8012D04DD411911F8011C302907D075
:101310004F4502DA17F1040F04DA012082460FE08C
:101320006D1EEEE7002F02DCED1B3E4403E0781C4F
:10133000A84200DD7D1CB81B00F1010A4FF00047F8
:101340002078000703D4AA4501DB4FF0FF3A0021C3
:10135000B7F1004F0DF143088DF8431024D002205F
:101360002B23002F01DA7F422D230A21021EA0F138
:10137000010000DC5FB197FBF1FC97FBF1F201FB90
:101380001C7C17460CF1300C08F801CDEEE7A8F1F3
:10139000010003702188090501D5452100E0652180
:1013A000A0F1010800F8011C09980FA9A1EB08079A
:1013B000FF1D00B10120411901EBEA70A169384419
:1013C000081A401EA0612078C00602D42046FFF70C
:1013D0009AFB099828B1D4E901219047206A401C62
:1013E00020622078C00622D52046FFF78CFB1EE045
:1013F000002E04DBB34502DD01A8805D00E0302053
:10140000D4E901219047206A401C2062761CAAF191
:1014100001005FEA000A0AD100F042FAC0680168E0
:10142000405CD4E901219047206A401C2062281EBC
:10143000A5F10105DCDC07E0D4E9012118F8010B76
:101440009047206A401C2062381EA7F10107F3DC98
:101450002046FFF76EFB032011B041E62DE9F04F67
:1014600004460D46D21D22F0070089B0D0E900974E
:10147000484639460BF074FA0246F80F01D02D2386
:1014800007E02068810701D52B2302E0202101EA33
:10149000C0038DF820300BB1012000E00020032AAA
:1014A000824601D0072A04DB2946204600F0FCF9D9
:1014B0003FE12078800601D40D2500E0E569C7F3FF
:1014C0000A560D2D49DA00214FEA175B08464FF006
:1014D0000000002F00F4400007DA00EB80004FF41A
:1014E000400100EBD07001EA60008115012901DDA7
:1014F0004FF0FF3100224FEA850CBCF1180F06D3E4
:101500001346ACF118004FF08052C24003E04FF494
:10151000801323FA0CF30CF10C0CBCF1200F04D354
:10152000ACF1200C09FA0CF001E007FA0CF00029EC
:101530004FF0004801DD18B90FE00ED140450CD343
:1015400019EB02095F4121B9404502D19F4329EAC5
:101550000209BBEB175F00D0761C2088000502D57E
:101560007B48784402E07A487844193808AA302346
:1015700002F80A30037C0AF10101002E0AF1020A86
:1015800053546A4602DC4FF0300101E04FF0310164
:101590004FF001088DF8001002D0A6F2FF3603E0EC
:1015A00059EA470100D06B4E002D02DC2178090773
:1015B00004D54FF002082E218DF80110C4460021F9
:1015C0000BE0C7F303433F01C35C491C6D1E02F8E7
:1015D0000830052908F1010801DA002DF1DC0021AD
:1015E0000CE000EB1973491C1B786D1E082902F8EA
:1015F00008304FEA091908F1010801DA002DF0DC82
:1016000021688B0602D516E0A8F10108E04505DD4A
:1016100002EB080313F8013C302BF5D0B8F1000FB2
:1016200009DD02EB080313F8013C2E2B03D1090757
:1016300001D4A8F10108002D05DD3E2102F80810B3
:101640006D1E08F10108407C002E02F8080008F128
:10165000010804DA2D20764202F8080002E02B206F
:1016600002F808000A214FF47A70864208F1010856
:101670000BDB96FBF0F3303302F8083096FBF0F307
:1016800008F1010800FB136601E0642E0CDB642006
:1016900096FBF0F3303302F8083096FBF0F308F1D4
:1016A000010800FB136601E00A2E06DB96FBF1F051
:1016B000303002F8080008F1010896FBF1F001FB58
:1016C0001060303002F80800A16908F1010808EB49
:1016D000050202EB0A00081AA0612078C00602D4B5
:1016E0002046FFF710FA216A08AE01EB0A002062DB
:1016F00004E0D4E9012116F8010B9047BAF1010A80
:10170000F7D22078C00602D52046FFF7FCF96E46D6
:1017100009E016F8010B3E280FD0D4E901219047CB
:10172000206A401C2062B8F10108F2D22046FFF77F
:1017300000FA09B00320BDE8F08F206A2844206237
:1017400003E0D4E90121302090476D1EEBD3F8E788
:10175000C507010002FCFFFF10B5436913B1AFF3E9
:10176000008001E0FFF708FA012010BD127800F1B7
:1017700024010A7000224A700122EDE711684FF03F
:10178000FF32E9E710B5436913B1AFF3008001E020
:10179000FFF7A6FA012010BD128800F1240182840F
:1017A0000022C2840122EDE711684FF0FF32E9E721
:1017B00070B516460C46054600F06AF8036893F8C3
:1017C0000101012806D0FF2C0FD8185D68B1012057
:1017D0002C7070BDD3F807013246214603F207137F
:1017E00003442846BDE8704018474FF0FF3070BDF5
:1017F000002801D000F020B8704710B500F028F99B
:10180000BDE81040FFF7F4BF10B5002102A000F0C2
:1018100006F9012010BD00005349475056464E3A84
:101820002050757265207669727475616C20666EE1
:101830002063616C6C65640001491820ABBEFEE753
:101840002600020070477546FFF792FBAE46050082
:101850006946534620F00700854618B020B5FEF7CC
:10186000CDFDBDE820404FF000064FF000074FF0DF
:1018700000084FF0000B21F00701AC46ACE8C009AE
:10188000ACE8C009ACE8C009ACE8C0098D467047B7
:1018900010B500F005F8001D10BD00BF91EC000070
:1018A000004870475C9400202DE9F0411F46044633
:1018B00003260168072A01F4006004DB08B116A5BD
:1018C00005E016A503E008B115A500E015A521F077
:1018D00010002060A069C01EA0610FB1401EA06171
:1018E0002046FFF710F94FB1D4E90121384690475F
:1018F000206A401C2062C01C206206E0206AFAE7D1
:10190000D4E9012115F8010B9047761EF8D2204644
:10191000FFF70FF9BDE8F0814E414E006E616E0099
:10192000494E4600696E66002DE9F047814616462D
:101930008AB0354878440DC88DE80D0032487844A7
:10194000801C03AC0DC884E80D0041F69B300844B0
:10195000372190FBF1F290FBF1F5A5F1800501FB39
:1019600012041B3C02D56442012000E00020DFF895
:1019700098A080460027FA44AAF1BE0A0EE0E007CC
:101980000AD03246684607EB470101230AEB810182
:1019900000F05FFB8DE8070064107F1C002CEED187
:1019A000194F7F44AE3F19E0E80715D007EB04104C
:1019B0000DF1180A90E80E008AE80E00C068F042A7
:1019C00001D1981908903246012306A903A800F016
:1019D00040FB03AB83E807006D10641C002DE3D1CE
:1019E0004FF0010332466946B8F1000F03A802D058
:1019F00000F01AFB01E000F02CFBC9E90001C9F876
:101A000008200AB0BDE8F0878404010010B5044640
:101A1000AFF300802046BDE81040FEF77ABC70B5F9
:101A200005460C460A2000E06D1C00F039F835B17F
:101A300028780028F8D102E0641C00F031F814B1D5
:101A400020780028F8D1BDE870400A2000F028B8BE
:101A500010B5012805D0002103A0FFF7E0FF012009
:101A600010BD09A1F8E7000053494752544D454DB8
:101A70003A204F7574206F662068656170206D652F
:101A80006D6F7279000000003A2048656170206D2A
:101A9000656D6F727920636F727275707465640022
:101AA00008B569468DF800000320ABBE08BD0000F4
:101AB0004FF0013C50F8042B51F8043B9A4221D1DD
:101AC000A2EB0C03934313EACC1317D150F8042B69
:101AD00051F8043B9A4215D1A2EB0C03934313EA4D
:101AE000CC130BD150F8042B51F8043B9A4209D186
:101AF000A2EB0C03934313EACC13DBD04FF00000AE
:101B0000704700BFD01A01BAB1FA81F101F0180193
:101B100022FA01F0CB40C1F12001DBB2C0B2C01A01
:101B20002CFA01F3D11A914311EAC311E6D170479F
:101B30005FEA400C08BF91F0000F4FEA8C234FEA98
:101B4000C12243EA51514FEA1C5018BF00F5F04042
:101B50004FEA300018BF41F000415FEA6C5C00F0D2
:101B60002980BCF1FF3F08BF40F080407047130C54
:101B700006BF12044FF0100C4FF0000C130E04BF00
:101B800012020CF1080C130F04BF12010CF1040C2B
:101B9000930F04BF92000CF1020CD30F04BF52004C
:101BA0000CF1010C11464FF00002A0F11F00A0EB58
:101BB0000C00704711F0004F08BF704731F0004132
:101BC0003FF4D5AF0B0C06BF09044FF0100C4FF0DB
:101BD000000C0B0E04BF09020CF1080C0B0F04BF24
:101BE00009010CF1040C8B0F04BF89000CF1020CED
:101BF000CB0F04BF49000CF1010CCCF12003A0EB8A
:101C00000C0022FA03F302FA0CF241EA030100F19C
:101C10000100704720F07F4C80EA030023F07F47EB
:101C2000ACEB070303F57C5300F0004003F1FF0326
:101C30002DE980494FEA154B09B44FEA144325EAD0
:101C40000B4E24EA03480FF2042606EB132749083B
:101C50003E785FEA320203FB0667C7F5000707FB21
:101C600006F64FEA54374FEAD64606F1020607FB5E
:101C7000066CCCF1005C4FEA1C472CEA074C07FBD2
:101C800006F40CFB06F504EB15464FEA961634BF36
:101C900000204FF000404FEAD13706FB07FC4FEA27
:101CA0001C4C0CFB0BF7D21B03FB0CF761EB070181
:101CB0000CFB0EF7B0EB074072EB17420CFB08F77A
:101CC00034BFA2EB0742B2EB074261EB17414FEA88
:101CD0000C444FEA910706FB07FC4FEA1C4C0CFB37
:101CE0000BF7B0EBC74072EB573203FB0CF734BF76
:101CF000A2EBC742B2EBC74261EB57310CFB0EF7C8
:101D0000B0EBC70072EB57720CFB08F734BFA2EBC5
:101D1000C702B2EBC70261EB5771039F4FEA8161C3
:101D200041EA921104EBCC044FEAD1374FEA8262C8
:101D300006FB07FC42EA90124FEA80604FEA1C4C17
:101D40000CFB0BF7D21B03FB0CF761EB07010CFB41
:101D50000EF7B0EB074072EB17420CFB08F734BFED
:101D6000A2EB0742B2EB074261EB17414FEA8C55F9
:101D70004FEA910704EB9C2406FB07FC4FEA1C4C3E
:101D80000CFB0BF7B0EBC74072EB573203FB0CF7C1
:101D900034BFA2EBC742B2EBC74261EB57310CFB39
:101DA0000EF7B0EBC70072EB57720CFB08F734BFAD
:101DB000A2EBC702B2EBC70261EB577115EB4C25E2
:101DC0004FEA816141EA92114FEA82624FEAD137CC
:101DD00042EA901206FB07FC44F100044FEA8060DF
:101DE0004FEA1C4C0CFB0BF7D21B03FB0CF761EB0F
:101DF00007010CFB0EF7B0EB074072EB17420CFB30
:101E000008F734BFA2EB0742B2EB074261EB174180
:101E100015EB1C154FEA813141EA92414FEA8232BB
:101E200042EA90424FEA80304FEA0C7644F10004D7
:101E300048EA03434EEA0B484FF0000EB2EB080CA1
:101E400071EB030724BF624639464EEB0E0E4FF08E
:101E5000000B0018524149414BEB0B0BB2EB080C45
:101E600071EB03077BF1000B24BF624639464EEB52
:101E70000E0E4FF0000B0018524149414BEB0B0B7B
:101E8000B2EB080C71EB03077BF1000B24BF624639
:101E900039464EEB0E0E51EA020718BF46F0010616
:101EA00016EB0E7655F1000254F1000103D5BDE8A2
:101EB0008901BDE80088BDE88901BDE80048B61980
:101EC000524141EB0101A3F10103704780807F7E05
:101ED0007D7C7B7A797877767675747372717170A0
:101EE0006F6E6E6D6C6C6B6A6A6968686766666552
:101EF0006464636362616160605F5F5E5E5D5D5CE0
:101F00005C5B5B5A5A595958585757565655555550
:101F10005454535352525251515050504F4F4F4EB0
:101F20004E4D4D4D4C4C4C4B4B4B4A4A4A494949FE
:101F30004848484747474746464645454544444440
:101F4000444343434342424242414141002B9C4669
:101F500030D477002BD01CB54FEA370703B44FF0CD
:101F600010004FF01001BAF1000F06D0BCF1000FC5
:101F7000DCBF40F0080040F008014FF000000FBC4B
:101F8000BDE810400BF1010BBBF1010F08BF5FEA88
:101F9000170722BF12F1010211F101014FF00041B8
:101FA00043F1000300F0004043EA00007047F9D31A
:101FB0005708D0E746EA064613F1400F4FEA1646A7
:101FC0001FDD13F1200FDFBF16430A460021203327
:101FD0005B42BED0C3F1200746EA064602FA07F785
:101FE0004FEA164646EA0706C3F1200722FA03F233
:101FF00001FA07F721FA03F14FF0000342EA070262
:10200000A7E746EA020646EA06464FEA164646EAC9
:102010000106BCBF46EA0646360C4FF000034FF0FF
:1020200000024FF0000194E72DE9804C9A46934658
:1020300070B491E8380007C831EA400C48BF34EA70
:10204000430C03D5FFF7E6FDFFF780FFF0BCBDE8CA
:10205000008C2DE9804C9A46934670B491E8380084
:1020600007C810F0804F08BF13F0804F03D100F075
:1020700005F8FFF76BFFF0BCBDE8008C20F07F4750
:1020800080EA030023F07F4C07EB0C03A3F57C539D
:1020900000F00040A3F1FE0392F0000F00F0B380C7
:1020A00095F0000F00F077802DE901494FEA1140CB
:1020B0004FEA144621EA004800FB06FC24EA0647E2
:1020C00008FB06F607FB08F800FB07F718EB0648C5
:1020D0004CEB164C4FEA124B18EB07484FEA1546EB
:1020E0004CEB174022EA0B4E0BFB06FC25EA064799
:1020F0000EFB06F607FB0EFE0BFB07F71EEB064E6C
:102100004CEB164C4FF000061EEB074E4CEB174BFA
:1021100018EB0B0840F1000018EB0E0B58EB000811
:1021200040F100008F1A4FF000013CBFC943661B0D
:1021300014BFB5EB040C00213CBFC943F61B4FEAAA
:1021400017444EEA8E0E27EA04454FEA1C4704FB6B
:1021500007622CEA074C05FB07F70CFB05F604FBAE
:102160000CFC16EB074642EB174216EB0C4642EB13
:102170001C421BEB060658EB0202414146EA9E0652
:1021800001D5BDE80189B619524141EB0101A3F126
:102190000103BDE801894FEA14454FEA114724EADB
:1021A000054621EA074C05FB07F406FB07F70CFB85
:1021B00006F105FB0CFC11EB074144EB17444FEA19
:1021C000124711EB0C4144EB1C4422EA074C05FB7F
:1021D00007F206FB07F70CFB06F605FB0CFC16EBFB
:1021E000074642EB174216EB0C4642EB1C456A18B9
:1021F00054F1000148BF7047B619524141EB01014B
:10220000A3F10103704795F0000F37D04FEA114258
:102210004FEA144721EA024624EA074C02FB07F181
:1022200006FB07F70CFB06F402FB0CFC14EB07445F
:1022300041EB17414FEA154714EB0C4441EB1C41AD
:1022400025EA074C02FB07F506FB07F70CFB06F631
:1022500002FB0CFC16EB074645EB174516EB0C464C
:1022600045EB1C42121951F1000148BF7047B619E5
:10227000524141EB0101A3F1010370474FEA1445BC
:102280004FEA114724EA054621EA074C05FB07F10E
:1022900006FB07F70CFB06F24FF0000605FB0CFCF3
:1022A00012EB074241EB174112EB0C4251EB1C4180
:1022B00048BF7047921841EB0101A3F10103704739
:1022C00000BFFEE70346042B15D007DC7BB1012BD2
:1022D0000ED0022B0DD0032B12D10BE0202B0BD0F4
:1022E000212B0AD0222B09D0232B09D107E008E0AB
:1022F00007E006E005E004E003E002E001E000E0C2
:1023000000BF00BF002070470020704710B50022BA
:102310000A490B4804F0E6FF0A49094804F0D7FFD0
:102320004FF40062084909480BF023FE4FF4805235
:10233000074908480BF01DFE002010BD4C29002065
:10234000440400204C210020300900201409002002
:102350004C1100203011002070B504460D46214676
:1023600006482A680BF06DFE2146054804F0AFFFD1
:10237000034804F087FF002070BD000030110020EA
:102380004404002010B503460C460021084610BD49
:1023900070B504460D4600262A46214602480BF039
:1023A000FDFD304670BD00001409002010B5024844
:1023B00000F07AF910BD00009C0300200146087867
:1023C00010381823B0FBF3F20848805CC865032A74
:1023D00005D908686FF30900001D886503E00868E7
:1023E0006FF309008865886D704700006C1A01085A
:1023F000014600208A6A8B69CBB932B1012A0DD01F
:10240000022A03D0032A10D10EE000BFCB6A03F0EA
:102410008073B3F1807F00D1012007E0CB6AB3F174
:10242000C07F00D1012001E000E000BF34E08B69F3
:10243000B3F5005F1AD132B1012A07D0022A03D0C6
:10244000032A11D10AE000BF01200EE0CB6A03F09D
:102450008073B3F1807F00D1012006E0CB6AB3F135
:10246000C07F00D1012000E000BF15E032B1012A99
:1024700005D0022A04D0032A0CD103E000BF00BF1C
:10248000012008E0CB6A03F08073B3F1807F00D1B4
:10249000012000E000BF00BF704730B50468246829
:1024A00024F4802405682C60046863608468402CF0
:1024B00004D10468A2600468E16003E00468A160DC
:1024C0000468E26030BD00001048006820F08070B1
:1024D0000E4908600846006840F0807008600C48AB
:1024E000006820F001000A4908600846006840F0D2
:1024F000010008600020486000BF00BF00BF044822
:10250000406808B1002070470120FCE7FCED00E0C6
:10251000001000E031B50948446802F0B9F90849F3
:10252000B0FBF1F000994843009000BF03484068B9
:10253000001B00998842F9D338BD0000001000E06C
:1025400040420F00704772B600BFFEE770B50A4800
:102550000468001D0568001D0668344454B1082253
:102560000649204603F0F9FB0422044910312846AD
:1025700003F0F3FB70BD0000107AFF1F6200002023
:1025800010B504460CB9012010BD607920B90020B7
:102590002071204600F004F8012060710020F3E76C
:1025A00008B50A4A016891420FD100BF002100918D
:1025B0000749096841F48051054A116011460968CC
:1025C00001F48051009100BF00BF08BD00300240FF
:1025D0003038024070B50446A56D00F01BFC06467D
:1025E00094F83500022808D08020606500BF0020E4
:1025F00084F8340000BF012070BD2068006820F01E
:102600001600216808602068406920F08000216879
:102610004861206C08B9A06C28B12068006820F0DF
:102620000800216808602068006820F00100216827
:10263000086010E000F0EEFB801B05280BD920207D
:102640006065032084F8350000BF002084F8340062
:1026500000BF0320D0E72068006800F001000028D8
:10266000E8D194F85C103F208840A860012084F8ED
:10267000350000BF002084F8340000BF00BFBBE776
:10268000014691F83500022803D0802048650120DA
:102690007047052081F835000868006820F00100C7
:1026A0000A6810600020F3E7F8B5044600200090A7
:1026B0008C4800684FF41651B0FBF1F7A56D2E68F9
:1026C00094F85C1008208840304098B12068006879
:1026D00000F0040070B12068006820F00400216858
:1026E000086094F85C1008208840A860606D40F095
:1026F0000100606594F85C1001208840304068B1AA
:102700002068406900F0800040B194F85C1001201E
:102710008840A860606D40F00200606594F85C102D
:1027200004208840304068B12068006800F0020052
:1027300040B194F85C1004208840A860606D40F0BF
:102740000400606594F85C1010208840304078B335
:102750002068006800F0080050B394F85C10102066
:102760008840A8602068006800F4802080B120685C
:10277000006800F4002028B9206CC8B12046216C04
:10278000884715E0A06C98B12046A16C88470FE0FF
:102790002068006800F4807028B92068006820F084
:1027A000080021680860206C10B12046216C884721
:1027B00094F85C10202088403040002865D02068C4
:1027C000006800F0100000285FD094F85C10202012
:1027D0008840A86094F83500052828D12068006852
:1027E00020F01600216808602068406920F0800011
:1027F00021684861206C08B9A06C28B12068006885
:1028000020F008002168086094F85C103F208840A0
:10281000A860012084F8350000BF002084F834004F
:1028200000BF206D10B12046216D8847F8BD20689B
:10283000006800F4802080B12068006800F4002067
:1028400028B9606C10B12046616C88471DE0E06BD0
:10285000D8B12046E16B884717E02068006800F493
:10286000807068B92068006820F010002168086056
:10287000012084F8350000BF002084F8340000BF38
:10288000E06B10B12046E16B8847606D38B3606D36
:1028900000F00100F0B1052084F8350020680068E0
:1028A00020F001002168086000BF0098401C0090E3
:1028B000B84200D905E02068006800F00100002857
:1028C000F3D100BF012084F8350000BF002084F858
:1028D000340000BFE06C10B12046E16C884700BFB7
:1028E000A4E70000280000202DE9F041044600255F
:1028F00000F090FA074614B90120BDE8F081606A43
:1029000000B100BF022084F8350000BF002084F829
:10291000340000BF2068006820F0010021680860D2
:102920000AE000F077FAC01B052805D92020606571
:10293000032084F83500E0E72068006800F001001B
:102940000028EED12068056821480540D4E901013E
:102950000843E16808432169084361690843A169A4
:102960000843E1690843216A08430543606A042873
:1029700003D1D4E90B0108430543206805602068B2
:10298000456925F00705606A0543606A04280DD192
:10299000A06A0543E06A48B12046FFF729FD28B147
:1029A00040206065012084F83500A6E72068456175
:1029B0002046FFF703FD064694F85C103F20884050
:1029C000B06000206065012084F83500002094E7A5
:1029D0003F8010F02DE9F04704460D4616461F468D
:1029E0004FF00008D4F8589000BF94F83400012844
:1029F00002D10220BDE8F087012084F8340000BF36
:102A000094F83500012825D1022084F835000020F3
:102A100060653B46324629462046FFF73EFD94F866
:102A20005C103F208840C9F808002068006840F02A
:102A3000160021680860206C28B12068006840F00A
:102A40000800216808602068006840F001002168E3
:102A5000086006E000BF002084F8340000BF4FF09B
:102A600002084046C6E7000070B5044600F0D2F9FF
:102A700006462546681C10B104480078054400BF8E
:102A800000F0C8F9801BA842FAD370BD24000020D2
:102A9000F0B50C46002500220023002192E001261B
:102AA00006FA01F504EA0502AA427DD1474E8F08D5
:102AB00056F827308E07370F0F26BE403340444E5E
:102AC000B04201D1002623E0424EB04201D101269E
:102AD0001EE0414EB04201D1022619E03F4EB04205
:102AE00001D1032614E03E4EB04201D104260FE08E
:102AF0003C4EB04201D105260AE03B4EB04201D126
:102B0000062605E0394EB04201D1072600E008262E
:102B10008F073F0FBE409E4222D1354E3668964306
:102B2000334F3E603E1D366896433F1D3E603E1D5E
:102B3000366896433F1D3E603E1D366896433F1DF6
:102B40003E608E07370F0F2606FA07F31F4E8F08D9
:102B500056F827609E431D4F4FEA910C47F82C60B2
:102B600006684FEA410C032707FA0CF7BE430660DC
:102B7000CF0800F1200656F827604F074FEAD76CC0
:102B80000F2707FA0CF7BE434FEAD10C00F12007DC
:102B900047F82C60C6684FEA410C032707FA0CF788
:102BA000BE43C660466800E00BE001278F40BE438D
:102BB000466086684FEA410C032707FA0CF7BE43CC
:102BC0008660491C1029FFF46AAFF0BD0838014047
:102BD000000002400004024000080240000C0240D5
:102BE000001002400014024000180240001C024085
:102BF000003C0140F8B502460B46002500240020A9
:102C00000021D5E0012606FA01F51E6806EA050452
:102C1000AC4274D11E7906F00306012E04D01E7951
:102C200006F00306022E13D190684F000326BE4023
:102C3000B0434F00DE68BE403043906050680126CC
:102C40008E40B0431E79C6F300168E40304350606C
:102C50001E7906F00306032E09D0D0684F00032624
:102C6000BE40B0434F009E68BE403043D0601E79E6
:102C700006F00306022E13D1CF0802F1200656F803
:102C800027004E07F70E0F26BE40B0434F07FF0E3A
:102C90001E69BE403043CF0802F1200646F82700E7
:102CA00010684F000326BE40B0431E7906F00306AD
:102CB0004F00BE40304310605E6806F44036002E80
:102CC00075D000BF002600963B4E366846F480461D
:102CD000394F3E603E46366806F48046009600BF97
:102CE00000BF364E8F0856F827008E07370F0F2685
:102CF000BE40B043324EB24202D1002624E056E03C
:102D0000304EB24201D101261EE02F4EB24201D117
:102D1000022619E02D4EB24201D1032614E02C4EBA
:102D2000B24201D104260FE02A4EB24201D105265B
:102D30000AE0294EB24201D1062605E0274EB242F2
:102D400001D1072600E008268F073F0FBE40304321
:102D50001A4E8F0846F82700214E3068A0435E685F
:102D600006F4803606B120431D4E3060361D3068B3
:102D7000A0435E6806F4003606B12043184E361DA7
:102D80003060361D3068A0435E6806F4801606B1D8
:102D90002043134E08363060361D3068A0435E680D
:102DA00006F4001606B120430D4E0C363060491C67
:102DB0001029FFF427AFF8BD44380240083801401D
:102DC000000002400004024000080240000C0240E3
:102DD000001002400014024000180240001C024093
:102DE000003C0140024613690B400BB1012000E09A
:102DF0000020704710B5426921EA020302EA01048B
:102E000043EA0443836110BD0AB1816101E00B0410
:102E10008361704701480068704700001C00002073
:102E200070B504460CB9012070BD94F83D0028B976
:102E3000002084F83C00204600F0F0FB242084F8B9
:102E40003D002068006820F00100216808602068CB
:102E5000006840F40040216808602068006820F4A1
:102E600000402168086001F019FD05465C49606872
:102E7000884206D85B48854201D2012007E0002045
:102E800005E05948854201D2012000E000200128D8
:102E900000D1C9E75548B5FBF0F62068406820F03E
:102EA0003F003043216848604D496068884201D83E
:102EB000701C07E04FF4967070434FF47A71B0FBCA
:102EC000F1F0401C2168096A21F03F0108432168A4
:102ED000086243496068884214D8681E61684900E6
:102EE000B0FBF1F0401CC0F30B00042801D2042019
:102EF0003DE0681E61684900B0FBF1F0401CC0F382
:102F00000B0034E0A06838B9681E616801EB41012C
:102F1000B0FBF1F0401C0AE0681E616801EBC102E1
:102F200002EB0111B0FBF1F0401C40F48040C0F313
:102F30000B0008B901201AE0A06848B9681E616852
:102F400001EB4101B0FBF1F0401CC0F30B000CE0C1
:102F5000681E616801EBC10202EB0111B0FBF1F0E8
:102F6000401CC0F30B0040F4804040F40040216856
:102F7000C9694CF6FF72914308432168C861D4E9DE
:102F8000070108432168096821F0C001084321684E
:102F90000860D4E9031008432168896848F2FF32C9
:102FA0009143084321688860D4E9050108432168FA
:102FB000C96821F0FF0108432168C86020680068E3
:102FC00040F001002168086000202064202084F87F
:102FD0003D000020206384F83E0000BF24E700008D
:102FE000A086010080841E0000093D0040420F00C1
:102FF0002DE9F8430446894616461F46DDF8208031
:10300000FFF708FF054694F83D0020287ED11923DC
:10301000012251492046009502F08CFD10B102209A
:10302000BDE8F88300BF94F83C00012801D10220DC
:10303000F6E7012084F83C0000BF2068006800F03B
:10304000010028B92068006840F00100216808608C
:103050002068006820F4006021680860212084F85E
:103060003D00102084F83E000020206466626785E1
:10307000608D20853948E0622B464246494620460D
:1030800002F0AAFB08B10120CAE700BF00200090AF
:1030900020684069009020688069009000BF00BFF0
:1030A00044E02A464146204602F029FE50B1206CF9
:1030B000042805D12068006840F400702168086089
:1030C0000120ADE7606A007821680861606A401CF1
:1030D0006062608D401E6085208D401E20852068C6
:1030E0004069C0F3800070B1208D60B1606A0078E3
:1030F00021680861606A401C6062608D401E6085C6
:10310000208D401E20852A46414600E022E02046D0
:1031100002F0E2FC50B1206C042805D12068006860
:1031200040F4007021680860012079E7208D0028B4
:10313000B7D12068006840F4007021680860202042
:1031400084F83D00002084F83E0000BF84F83C0075
:1031500000BF65E7022063E7020010000000FFFFE8
:103160002DE9FC5F04460F4690469946DDE90CAB1D
:103170000E9EFFF74FFE054694F83D00202870D1C3
:1031800019230122B0492046009502F0D3FC10B16A
:103190000220BDE8FC9F00BF94F83C00012801D14B
:1031A0000220F6E7012084F83C0000BF2068006898
:1031B00000F0010028B92068006840F00100216893
:1031C00008602068006820F4006021680860222000
:1031D00084F83D00402084F83E0000202064C4F8BC
:1031E00024A0A4F82AB0608D20859848E0624B4660
:1031F000424639462046CDE9006502F04DFB08B154
:103200000120C6E7208D88B900BF0020019020680A
:103210004069019020688069019000BF00BF20686C
:10322000006840F400702168086040E0208D0128AB
:1032300018D12068006820F480602168086000BF11
:103240000020019020684069019020688069019009
:1032500000BF00BF2068006840F40070216808606B
:1032600025E0EFE0208D022816D12068006820F4C8
:103270008060216808602068006840F40060216870
:10328000086000BF0020019020684069019020681C
:103290008069019000BF0AE000BF00200190206813
:1032A0004069019020688069019000BF00BFBAE0CA
:1032B000208D03287ED8208D012815D12A4631463D
:1032C000204602F0DCFC08B1012062E720680069BA
:1032D000616A0870606A401C6062208D401E208513
:1032E000608D401E60859EE0208D02282AD13346E5
:1032F000002257492046009502F01CFC08B101202D
:1033000047E72068006840F4007021680860206882
:103310000069616A0870606A401C6062208D401E0E
:103320002085608D401E608520680069616A087094
:10333000606A401C6062208D401E2085608D401EAA
:10334000608570E03346002241492046009502F036
:10335000F1FB08B101201CE72068006820F48060C0
:103360002168086020680069616A0870606A401C12
:103370006062208D401E2085608D401E6085334632
:10338000002233492046009502F0D4FB08B1012009
:10339000FFE62068006840F400702168086020683B
:1033A0000069616A0870606A401C6062208D401E7E
:1033B000208500E010E0608D401E60852068006977
:1033C000616A0870606A401C6062208D401E208522
:1033D000608D401E608526E02A463146204602F078
:1033E0004EFC08B10120D4E620680069616A0870CB
:1033F000606A401C6062208D401E2085608D401EEA
:10340000608520684069C0F3800060B12068006971
:10341000616A0870606A401C6062208D401E2085D1
:10342000608D401E6085208D00287FF441AF2020F4
:1034300084F83D00002084F83E0000BF84F83C0082
:1034400000BFA6E60220A4E6020010000000FFFF75
:10345000040001002DE9FC5F04460F4690469946A2
:10346000DDE90CAB0E9EFFF7D5FC054694F83D0058
:1034700020287DD1192301224D492046009502F0D4
:1034800059FB10B10220BDE8FC9F00BF94F83C003E
:10349000012801D10220F6E7012084F83C0000BF9A
:1034A0002068006800F0010028B92068006840F03A
:1034B0000100216808602068006820F4006021682D
:1034C0000860212084F83D00402084F83E00002060
:1034D0002064C4F824A0A4F82AB0608D2085354863
:1034E000E0624B46424639462046CDE9006502F08F
:1034F00083FA08B10120C6E731E02A46314620466A
:1035000002F0FDFB50B1206C042805D12068006852
:1035100040F40070216808600120B4E7606A007818
:1035200021680861606A401C6062208D401E208511
:10353000608D401E608520684069C0F3800070B1D6
:10354000208D60B1606A007821680861606A401C63
:103550006062208D401E2085608D401E6085208D1C
:103560000028CAD12A463146204602F0B5FA00E0CA
:103570001CE050B1206C042805D12068006840F49C
:1035800000702168086001207DE72068006840F431
:10359000007021680860202084F83D00002084F835
:1035A0003E0000BF84F83C0000BF6CE702206AE7E1
:1035B000020010000000FFFF10B504461249206809
:1035C00088420ED11148006820F400100F490860AD
:1035D00040210F48FFF75CFA80210D48FFF758FAA9
:1035E00011E00C49206888420DD10848006820F499
:1035F00080000649086001210748FFF749FA0221C7
:103600000548FFF745FA10BD00540040403802401D
:1036100000040240005800400014024010B586B07B
:103620000446142101A8FDF7D5F9354920688842E0
:103630002FD100BF002000903248006840F0020007
:10364000304908600846006800F00200009000BFA2
:1036500000BFC020019012200290002003900320A0
:1036600004900420059001A92748FFF7C3FA00BF82
:103670000020009023481030006840F400102149D9
:10368000103108600846006800F40010009000BF88
:1036900033E01E49206888422FD100BF00200090EF
:1036A0001848006840F02000164908600846006885
:1036B00000F02000009000BF00BF03200190122006
:1036C000029000200390032004900420059001A99B
:1036D0000F48FFF78FFA00BF002000900948103014
:1036E000006840F48000074910310860084600680F
:1036F00000F48000009000BF00BF06B010BD0000C5
:10370000005400403038024000040240005800409D
:10371000001402400348006803490978084401493D
:10372000086070471C0000202400002010B50D48E0
:10373000006840F400700B4908600846006840F4D7
:10374000806008600846006840F4807008600320CC
:1037500000F0C8F80F2000F007F800F04BF8002048
:1037600010BD0000003C024070B588B00446002542
:103770000026002221462D2000F076F82D2000F0B2
:1037800063F800BF002001901648006840F4807084
:10379000144908600846006800F48070019000BF7A
:1037A00000BF02A903A801F051F801F077F8450025
:1037B0000D48B5FBF0F0461E0C480D49086040F27C
:1037C000E7310B48C160466000210161816001F072
:1037D00008FC20B9064801F039FC08B070BD012092
:1037E000FBE700004038024040420F00002000404C
:1037F000FC03002008B500BF0020009011480068BD
:1038000040F480400F4908600846006800F480409A
:10381000009000BF00BF00BF00200090081F00689C
:1038200040F08050091F08600846006800F0805092
:10383000009000BF00BF00220F21901E00F014F87E
:1038400008BD00004438024001460846002809DB54
:1038500000F01F0301229A4043099B0003F1E0237B
:10386000C3F8002100BF70472DE9F05F80460D4688
:103870001646002709F0A0F8074639462A4633467F
:1038800001F00700C0F1070ABAF1040F02D94FF0A6
:10389000040A01E0C0F1070AD14600F1040ABAF1B6
:1038A000070F02D24FF0000A01E0A0F1030AD4464C
:1038B0004FF0010A0AFA09FAAAF1010A0AEA020A11
:1038C0000AFA0CFA4FF0010B0BFA0CFBABF1010BEF
:1038D0000BEA030B4AEA0B042146404609F074F850
:1038E000BDE8F09F00BF00F00702064B19684FF6D5
:1038F000FF031940044B0B4343EA0221014B1960BB
:1039000000BF70470CED00E00000FA05704702466A
:103910001068416200207047F0B5034615461868EC
:10392000446A21B944EA05401E68B06219E018688B
:10393000806A04EB1044002208E0186800F58270E9
:1039400050F8220004EB1044501CC2B2481E9042B2
:10395000F3D844EA0547186800F582704E1E40F817
:1039600026700020F0BD10B50446D4F8040404F01D
:1039700027F910BD70B504460D46C5EBC50304F12B
:103980003C0101EB8301CA682946D4F8040404F021
:103990005FF870BD70B504460D46C5EBC50304F570
:1039A000FE7101EB8301CA682946D4F8040404F0CF
:1039B000C0F870BD10B50446D4F8040404F003F94F
:1039C00010BD70B504460E4606F0800080280AD16E
:1039D00006F00F00C0EBC00104F13C0000EB8105D4
:1039E0000120687009E006F00F00C0EBC00104F58B
:1039F000FE7000EB81050020687006F00F00287053
:103A000000BF94F8BC03012801D1022070BD012041
:103A100084F8BC0300BF2946206804F025FE00BFDF
:103A2000002084F8BC0300BF00BFEFE770B5044678
:103A30000E4606F00F006168884201D9012070BD72
:103A400006F0800080280AD106F00F00C0EBC0010C
:103A500004F13C0000EB81050120687009E006F0EC
:103A60000F00C0EBC00104F5FE7000EB81050020E3
:103A700068700020A87006F00F00287000BF94F84E
:103A8000BC03012801D10220D9E7012084F8BC033E
:103A900000BF2946206805F0CDF800BF002084F85B
:103AA000BC0300BF00BFCAE7024601F00F00C0EB35
:103AB000C00302F5FE7000EB8300806970472DE9BA
:103AC000F04705460E4690461F464FF0000906F0A7
:103AD000800080280AD106F00F00C0EBC00105F17C
:103AE0003C0000EB81040120607009E006F00F004B
:103AF000C0EBC00105F5FE7000EB81040020607092
:103B000006F00F002070C4F80880E770607808B1F4
:103B10002078E080022F01D10020207100BF95F8AD
:103B2000BC03012802D10220BDE8F087012085F8FE
:103B3000BC0300BF2146286804F0AEFC00BF002093
:103B400085F8BC0300BF4846EEE72DE9F041044686
:103B50000E461746984606F00F00C0EBC00104F56C
:103B6000FE7000EB8105EF60C5F814800020A861AD
:103B7000687006F00F0028702069012800D12F61BD
:103B800006F00F0028B9227C2946206804F02EFF99
:103B900004E0227C2946206805F0E0F80020BDE81A
:103BA000F08170B504460D4605F00F00616888424B
:103BB00001D9012070BD05F0800080280AD105F0F0
:103BC0000F00C0EBC00104F13C0000EB81060120B6
:103BD000707007E0C5EBC50104F5FE7000EB8106CF
:103BE000002070700120B07005F00F00307000BF31
:103BF00094F8BC03012801D10220DBE7012084F8FE
:103C0000BC0300BF3146206805F05BF805F00F00EB
:103C100028B9217C04F57172206804F0D3FF00BF3D
:103C2000002084F8BC0300BF00BFC3E72DE9F041CA
:103C300004460E461746984606F00F00C0EBC0013A
:103C400004F13C0000EB8105EF60C5F81480002012
:103C5000A8610120687006F00F0028702069012813
:103C600000D12F6106F00F0028B9227C2946206878
:103C700004F0BCFE04E0227C2946206805F06EF8C2
:103C80000020BDE8F0812DE9FE4F04462068029037
:103C9000029D206805F051FA00287DD1206805F0CA
:103CA0008BFA08B9BDE8FE8F206805F085FA00F0B0
:103CB0000200022805D12068406900F00200216856
:103CC0004861206805F078FA00F01000102846D10D
:103CD0002068806920F01000216888610298D0F87F
:103CE000209009F00F00C0EBC00104F5FE7000EB5E
:103CF000810AC9F3434002281AD147F6F07009EA55
:103D0000000030B3C9F30A12DAF80C10029805F07B
:103D100058FAC9F30A11DAF80C000844CAF80C0082
:103D2000C9F30A11DAF818000844CAF8180010E0BC
:103D3000C9F3434006280CD1082204F5717102989A
:103D400005F03FFAC9F30A11DAF818000844CAF876
:103D500018002068806940F01000216888612068A0
:103D600005F02AFA00F40020B0F5002F52D1002609
:103D7000206805F0F1F9834649E00BF00100E8B353
:103D8000F1B2206805F00BFA804608F0010058B146
:103D9000012105F5306000E021E200EB4610816072
:103DA0003146204602F06CFB08F00800082809D1D3
:103DB000082105F5306000EB461081603146204651
:103DC00002F02CFB08F01000102805D1102105F599
:103DD000306000EB4610816008F02000202805D1FB
:103DE000202105F5306000EB4610816008F400509A
:103DF000B0F5005F08D14FF4005100E004E005F594
:103E0000306000EB46108160761C4FEA5B0BBBF123
:103E1000000FB2D1206805F0CFF900F48020B0F592
:103E2000802F7ED1206805F08DF98346002683E03F
:103E30000BF0010000287CD0F1B2206805F096F963
:103E4000804608F00100F0B306F00F010120884021
:103E5000019040F634004159019821EA000040F6F3
:103E600034014851012105F5106000EB46108160D6
:103E70002069012824D1C6EBC60104F13C0000EB07
:103E80008100C6EBC602C16804F13C0000EB820071
:103E900080680144C6EBC60204F13C0000EB8200DE
:103EA000C1606EB9C6EBC60104F13C0000EB8100B5
:103EB000406928B904F571720121206804F082FE7E
:103EC000F1B2204600E001E0FFF754FD08F00800E1
:103ED000082805D1082105F5106000EB4610816027
:103EE00008F01000102805D1102105F5106000EB36
:103EF0004610816008F04000402805D1402105F5BA
:103F0000106000EB4610816008F00200022805D125
:103F1000022105F5106000EB4610816008F080007A
:103F200001E00DE005E0802803D13146204602F093
:103F300065FB761C4FEA5B0BBBF1000F7FF478AF9B
:103F4000206805F039F900F00040B0F1004F1CD1B5
:103F500040F60400405920F0010140F604004151B0
:103F600094F8F403012807D1002084F8F403002119
:103F70002046FFF7CBFC02E0204600F063FA206801
:103F8000406900F0004021684861206805F014F99C
:103F900000F40060B0F5006F0ED140F60800405903
:103FA00000F0010010B1204600F0A4FA206840693A
:103FB00000F4006021684861206805F0FDF800F415
:103FC0008050B0F5805F7DD140F60400405920F06C
:103FD000010140F6040041511021206805F080F8ED
:103FE00000273EE04FF67F3105F5106000EB4710EB
:103FF000816005F5106000EB4710006820F40011A7
:1040000005F5106000EB4710016005F5106000EB4E
:104010004710006840F0006105F5106000EB4710A4
:1040200001604FF67F3105F5306000EB471081608D
:1040300005F5306000EB4710006820F4001105F52D
:10404000306000EB4710016005F5306000EB471071
:10405000006840F0006105F5306000EB471001603A
:104060007F1C6068B842BDD840F61C00405940F043
:10407000011140F61C004151206B70B1D5F8840845
:1040800040F00B01C5F8841840F64400405940F058
:104090000B0140F6440041510FE040F61400405936
:1040A00042F22B01084340F614014851081F4059C1
:1040B00040F00B014FF401604151D5F8000820F4A5
:1040C000FE6000E00DE0C5F80008217C04F5717287
:1040D000206804F077FD2068406900F48050216872
:1040E0004861206805F068F800F40050B0F5005F02
:1040F00017D1206804F038FA206805F00BF8E0606A
:1041000000F0C6FB0090227B2068009905F0DCF8E7
:10411000204600F07FF92068406900F400502168D3
:104120004861206805F048F800F00800082808D128
:10413000204600F08EF92068406900F008002168F0
:104140004861206805F038F800F48010B0F5801F51
:104150000AD100263146204600F043F82068406925
:1041600000F4801021684861206805F025F800F40B
:104170000010B0F5001F0AD100263146204600F09D
:1041800039F82068406900F400102168486120680F
:1041900005F012F800F08040B0F1804F08D12046C1
:1041A000FFF7E1FB2068406900F08040216848612A
:1041B000206805F001F800F0040004280FD1206801
:1041C000D0F8049009F00400042802D12046FFF73B
:1041D000F1FB2068406840EA09002168486000BFA0
:1041E00060E570B504460D462946D4F8040403F092
:1041F00053FD70BD70B504460D462946D4F804043D
:1042000003F062FD70BD70B58AB0044614B9012098
:104210000AB070BD266894F8BD0328B9002084F860
:10422000BC03204600F0A2F8032084F8BD03F06B25
:1042300000F4807008B900212161206804F0CEFBF1
:10424000282204F110016846FCF78AFB94E80F006D
:1042500004F09EF920B1022084F8BD030120D7E7C5
:104260000021206804F0DDFF002531E00121C5EBCD
:10427000C50204F13C0000EB82004170C5EBC501B2
:1042800004F13C0000F82150C5EBC50100EB8100B2
:10429000C5800021C5EBC50204F13C0000EB8200A3
:1042A000C170C5EBC50204F13C0000EB82008160E7
:1042B000C5EBC50204F13C0000EB8200C160C5EB18
:1042C000C50204F13C0000EB82004161681CC5B2EC
:1042D0006068A842CAD800252AE00021C5EBC502C3
:1042E00004F5FE7000EB82004170C5EBC50104F5DA
:1042F000FE7000F821500021C5EBC50200EB8200E2
:10430000C170C5EBC50204F5FE7000EB8200816050
:10431000C5EBC50204F5FE7000EB8200C160C5EB81
:10432000C50204F5FE7000EB82004161681CC5B255
:104330006068A842D1D8282204F110016846FCF731
:104340000FFB94E80F0004F059FA20B1022084F822
:10435000BD0301205CE7002084F83800012084F8C8
:10436000BD03206804F038FA002051E710B586B08C
:104370000446142101A8FCF72DFB2068B0F1A04FE2
:1043800042D100BF002000902048006840F00100AA
:104390001E4908600846006800F00100009000BF58
:1043A00000BF4FF4C0500190022002900020039003
:1043B000032004900A20059001A91548FEF71AFC75
:1043C00000BF1248001D006840F080000F49091D21
:1043D000086000BF002000900C481430006840F4D2
:1043E00080400A49143108600846006800F48040A3
:1043F000009000BF00BF00BF002205214320FFF74F
:1044000033FA4320FFF720FA06B010BD30380240DF
:104410000000024070B504460125E06808B9002597
:1044200006E0E068022801D1012501E0FEF78BF8E3
:104430002946D4F8040403F0E6FCD4F8040403F09D
:104440008BFC70BD10B50446D4F8040403F0BAFC2C
:1044500010BD10B50446D4F8040403F0BEFC10BD32
:1044600070B504460D4600BF94F8BC03012801D185
:10447000022070BD012084F8BC0300BF84F83850CE
:104480002946206804F001FF00BF002084F8BC0327
:1044900000BF00BFEDE710B5044604F57171D4F814
:1044A000040403F0C7FC10BD70B50446256800BFC6
:1044B00094F8BC03012801D1022070BD012084F8CA
:1044C000BC0300BFA06A012806D1A069012803D05F
:1044D000A86B40F48030A863206804F0E1FD2068F8
:1044E00004F068F900BF002084F8BC0300BF00BFDF
:1044F000E3E7000010B50446D4F8040403F0F7FC29
:104500002068D0F8000E40F001002168C1F8000ECC
:10451000206A28B10348006840F00600014908609D
:1045200010BD000010ED00E0F8B50446002500269F
:10453000207800F0010020B9207800F00400042861
:104540002FD100205B498866FEF764FC054606E033
:10455000FEF760FC401B022801D90320F8BD564835
:104560000068C0F3C0600028F2D160688101207A41
:1045700041EA007050498431086001204D49886645
:10458000FEF748FC054606E0FEF744FC401B022807
:1045900001D90320E2E748480068C0F3C060002862
:1045A000F2D0207800F0020002287DD100BF002068
:1045B000009041484030006840F080503E49403112
:1045C00008600846006800F08050009000BF00BFFF
:1045D0003A48006840F4807038490860FEF71AFCD9
:1045E000054606E0FEF716FC401B022801D9032011
:1045F000B4E73248006800F480700028F2D02E48FA
:104600007030006800F440764EB3A08900F440702A
:10461000B04224D028487030006820F44076012051
:104620002749086000200860234870300660006851
:1046300000F0010098B1FEF7EDFB054608E0FEF73B
:10464000E9FB401B41F28831884201D9032085E70C
:10465000194870300068C0F340000028EFD000BF58
:10466000A08900F44070B0F5407F0CD112480830AA
:10467000006820F4F810134AE168114008430E491D
:104680000831086007E00C480830006820F4F81092
:10469000094908310860084870300068A189C1F3F1
:1046A0000B010843044900E002E07031086000BFDC
:1046B000002053E7000047420038024000700040ED
:1046C000400E4742FFFCFF0F70B504460D460CB983
:1046D000012070BD5848006800F00700A84209D2C8
:1046E00055490D700846006800F00700A84201D047
:1046F0000120EEE7207800F0020002281DD120788A
:1047000000F00400042805D14C48006840F4E05053
:104710004A490860207800F00800082805D1474879
:10472000006840F46040454908604448006820F053
:10473000F000A168084341490860207800F00100BA
:10474000A8B36068012807D13C4808380068C0F366
:104750004040B8B90120BCE76068022802D0606818
:10476000032807D1354808380068C0F3406048B9CD
:104770000120AEE7314808380068C0F3400008B9AE
:104780000120A6E72D48006820F003006168084377
:104790002A490860FEF73EFB064609E0FEF73AFBB1
:1047A000801B41F28831884202D9032091E707E05B
:1047B0002248006800F00C006168B0EB810FEDD179
:1047C0001D48006800F00700A84209D91A490D7079
:1047D0000846006800F00700A84201D0012078E7F1
:1047E000207800F00400042807D11448006820F461
:1047F000E050E168084311490860207800F00800A3
:10480000082808D10D48006820F46040216940EA7A
:10481000C1000A49086000F061F808490968C1F35D
:104820000311074A515CC840064908600648006801
:10483000FEF79AFF00204CE7003C02400838024097
:10484000741A010828000020200000200F220260B6
:104850000D4A126802F0030242600B4A126802F02D
:10486000F0028260084A126802F4E052C260064A0E
:10487000126802F46042D2080261044A126802F02F
:1048800007020A607047000008380240003C0240FE
:1048900001480068704700002800002000B5FFF7BD
:1048A000F7FF04490968C1F38221034A515CC840FB
:1048B00000BD000008380240841A010800B5FFF767
:1048C000E7FF04490968C1F34231034A515CC8401B
:1048D00000BD000008380240841A01082DE9F047A5
:1048E000002400250026A1462548006800F00C00A1
:1048F00020B1042805D008283AD105E0DFF88490DB
:1049000039E0DFF8849036E01D48001F006800F0B1
:104910003F041B48001F006800F4800078B11A486B
:104920001749091F0968C1F38811A0FB01700146EE
:10493000224600233846FBF725FE05460EE01148C7
:104940000F49091F0968C1F38811A0FB01700146D6
:10495000224600233846FBF715FE05460848001F8F
:104960000068C0F30140401C4600B5FBF6F902E0C8
:10497000DFF8109000BF00BF4846BDE8F087000098
:10498000083802400024F40000127A00F8B504460A
:104990000CB90120F8BD207800F00100002874D087
:1049A000F948006800F00C0004280DD0F6480068B3
:1049B00000F00C00082813D1F348001F006800F431
:1049C0008000B0F5800F0BD1EF4808380068C0F3C5
:1049D0004040002859D06068002856D10120D9E70E
:1049E00000BF6068B0F5803F08D1E748083800682C
:1049F00040F48030E449083908601EE06068B0F592
:104A0000A02F0DD1E0480838006840F48020DE492E
:104A1000083908600846006840F4803008600CE0FF
:104A2000D9480838006820F48030D7490839086030
:104A30000846006820F48020086000BF606890B1DC
:104A4000FEF7E8F9054606E0FEF7E4F9401B6428A6
:104A500001D903209EE7CC4808380068C0F34040E5
:104A60000028F1D011E0FEF7D5F9054606E0FEF783
:104A7000D1F9401B642801D903208BE7C2480838CC
:104A80000068C0F340400028F1D1207800F0020017
:104A900002285FD1BC48006800F00C0058B1BA4849
:104AA000006800F00C0008281CD1B748001F0068FF
:104AB00000F48000B0B9B44808380068C0F3400082
:104AC00020B1E068012801D0012063E7AE48083832
:104AD000006820F0F800216940EAC100AA490839BD
:104AE000086037E0E06800B30120A8490860FEF7DD
:104AF00091F9054606E0FEF78DF9401B022801D921
:104B0000032047E7A04808380068C0F340000028A9
:104B1000F1D09D480838006820F0F800216940EA8B
:104B2000C10099490839086014E0002097490860DD
:104B3000FEF770F9054606E0FEF76CF9401B022807
:104B400001D9032026E7904808380068C0F34000E8
:104B50000028F1D1207800F0080008282CD16069E5
:104B6000A8B101208A490860FEF754F9054606E01D
:104B7000FEF750F9401B022801D903200AE78248BA
:104B80006C300068C0F340000028F1D014E0002031
:104B90007F490860FEF73EF9054606E0FEF73AF960
:104BA000401B022801D90320F4E677486C300068E6
:104BB000C0F340000028F1D1207800F00400042860
:104BC00070D1002770483830006800F0805090B9EC
:104BD00000BF002000906C483830006840F08050E2
:104BE0006949383108600846006800F0805000903C
:104BF00000BF00BF01276748006800F48070B0B9AB
:104C00006448006840F4807062490860FEF702F969
:104C1000054606E0FEF7FEF8401B022801D90320F6
:104C2000B8E65C48006800F480700028F2D000BF4D
:104C3000A068012808D154486830006840F001009D
:104C40005149683108601DE0A06805280DD14E4823
:104C50006830006840F004004B496831086008463D
:104C6000006840F0010008600CE0474868300068C8
:104C700020F001004449683108600846006820F0CF
:104C80000400086000BFA068A8B1FEF7C3F805469D
:104C900009E0FEF7BFF8401B41F28831884202D993
:104CA000032077E626E0384868300068C0F340000B
:104CB0000028EED013E0FEF7ADF8054608E0FEF759
:104CC000A9F8401B41F28831884201D9032061E6EE
:104CD0002D4868300068C0F340000028EFD1012F54
:104CE00007D129483830006820F0805026493831F3
:104CF000086000BFA069002845D02348006800F084
:104D00000C0008285DD0A069022845D100201F4969
:104D10000866FEF77FF8054606E0FEF77BF8401BC5
:104D2000022801D9032035E6174808380068C0F387
:104D300040600028F1D1D4E907010843616A40EAE4
:104D400081110122A06AC2EB500041EA00412C20EF
:104D5000005D41EA00600C49091F086001200B4911
:104D60000866FEF757F8054606E0FEF753F8401BC5
:104D7000022801D903200DE6034808380068C0F373
:104D800040600028F1D049E0083802400000474266
:104D9000800E474200700040002021490866FEF75F
:104DA00039F8054606E0FEF735F8401B022801D920
:104DB0000320EFE51B480068C0F340600028F2D1F3
:104DC0002CE0A069012800D1E4E51648001D066822
:104DD000A069012820D006F48001E06981421BD13E
:104DE00006F03F01206A814216D147F6C07030407C
:104DF000616AB0EB811F0FD106F440310122A06A35
:104E0000C2EB5000B1EB004F06D106F070612C20D0
:104E1000005DB1EB006F01D00120BBE50020B9E5DA
:104E2000000047420038024010B504460CB901208A
:104E300010BD607920B900202071204600F00EF8E6
:104E4000022060712068006840F00400216808605A
:104E5000012060710020A06000BFE9E708B50A4AA0
:104E6000016891420FD100BF0021009107490968F4
:104E700041F04001054A11601146096801F0400106
:104E8000009100BF00BF08BD000806503438024042
:104E900010B504460CB9012010BD607F20B9002078
:104EA0002077204600F060F80220607700BFCA201B
:104EB0002168486253202168486200BF204601F003
:104EC0001BFD40B100BFFF202168486200BF0420E5
:104ED00060770120E0E72068806822490840216867
:104EE00088602169606808436169084321688968AE
:104EF0000843216888602168E068086120680169CA
:104F0000208941EA0040216808612068C06820F0DB
:104F100080002168C8602068806800F0200060B9C7
:104F2000204600F03FF840B100BFFF2021684862F2
:104F300000BF042060770120AEE72068006C20F4F9
:104F40008020216808642068006CA16908432168FA
:104F5000086400BFFF202168486200BF012060771D
:104F6000002099E7BFFF8FFF1FB504460020009087
:104F70000190029003900949206888420CD10220D8
:104F80000090C00103906846FFF7CEFA08B1FDF724
:104F9000DAFA0120024908601FBD00000028004025
:104FA0003C0E474270B5044600252068C06820F0DA
:104FB000A0002168C860FDF72DFF054607E0FDF75A
:104FC00029FF401BB0F57A7F01D9032070BD20680E
:104FD000C06800F020000028F1D00020F6E77047FC
:104FE000704710B504460CB9012010BD94F83D007F
:104FF00028B9002084F83C00204600F025F8022063
:1050000084F83D00211D206801F01EFD012084F878
:10501000460000BF84F83E0001213F20015540209A
:1050200001554120015500BF00BF012084F8420016
:1050300043200155442001554520015500BF012062
:1050400084F83D000020D0E770470000014691F849
:105050003D00012801D001207047022081F83D0069
:105060000868C06840F001000B68D8601A4B0868F7
:1050700098421BD00868B0F1804F17D0174B0868D2
:10508000984213D0164B086898420FD0154B086809
:1050900098420BD0144B0868984207D0134B08680D
:1050A000984203D0124B086898420CD10868806877
:1050B00000F00702062A0CD00868006840F00100E2
:1050C0000B68186005E00868006840F001000B6894
:1050D00018600020C0E7000000000140000400400C
:1050E00000080040000C0040000401400040014066
:1050F00000180040704710B5044620680069C0F3EE
:105100004000D8B12068C068C0F34000B0B16FF073
:10511000020021680861012020772068806900F082
:10512000030018B12046FFF7E5FF05E0204600F038
:10513000ADF8204600F0ABF8002020772068006929
:10514000C0F38000D8B12068C068C0F38000B0B15F
:105150006FF00400216808610220207720688069D0
:1051600000F4407018B12046FFF7C4FF05E0204668
:1051700000F08CF8204600F08AF8002020772068A4
:105180000069C0F3C000D8B12068C068C0F3C00097
:10519000B0B16FF008002168086104202077206812
:1051A000C06900F0030018B12046FFF7A3FF05E037
:1051B000204600F06BF8204600F069F800202077C8
:1051C00020680069C0F30010D8B12068C068C0F33F
:1051D0000010B0B16FF0100021680861082020773E
:1051E0002068C06900F4407018B12046FFF782FFC4
:1051F00005E0204600F04AF8204600F048F800207C
:1052000020772068006900F0010058B12068C0686C
:1052100000F0010030B16FF0010021680861204604
:1052200000F036F820680069C0F3C01058B120685B
:10523000C068C0F3C01030B16FF080002168086111
:105240002046FFF7CCFE20680069C0F3801058B1FB
:105250002068C068C0F3801030B16FF04000216852
:105260000861204600F020F820680069C0F3401073
:1052700058B12068C068C0F3401030B16FF0200012
:10528000216808612046FFF7ABFE10BD70477047EC
:1052900010B5044603492068884201D1FEF73AFA66
:1052A00010BD0000002000407047704770470000AC
:1052B0002DE9F84F0446206805682068C668206814
:1052C00047694FF00009CA4605F00F09B9F1000F10
:1052D0000AD105F0200038B106F0200020B12046A8
:1052E00001F0DCFCBDE8F88FB9F1000F7CD007F0CD
:1052F000010018B906F49070002875D005F001007F
:1053000030B106F4807018B1206C40F001002064C8
:1053100005F0040030B107F0010018B1206C40F036
:105320000200206405F0020030B107F0010018B15E
:10533000206C40F00400206405F0080048B106F03D
:10534000200010B907F0010018B1206C40F00800EF
:105350002064206C002846D005F0200028B106F01B
:10536000200010B1204601F099FC20684069C0F38C
:10537000801A206C00F0080010B9BAF1000F2DD08F
:10538000204601F032FC2068406900F040004028CF
:1053900020D100BF00BF2168143151E8001F21F067
:1053A00040002168143141E80002002AF3D100BF17
:1053B000A06B50B17548A16B0865A06BFDF760F953
:1053C00088B1A06B016D88470DE02046FFF76EFFA6
:1053D00009E009E02046FFF769FF04E02046FFF7F7
:1053E00065FF002020647DE7206B012876D105F061
:1053F0001000002872D006F010000028FAD000BF7C
:1054000000200090206800680090206840680090AC
:1054100000BF00BF2068406900F0400040285ED116
:10542000A06B006840681FFA80F8B8F1000F54D0F4
:10543000A08D404551DDA4F82E80A06BC069B0F569
:10544000807F43D000BF00BF21680C3151E8001FAE
:1054500021F4807021680C3141E80002002AF3D168
:1054600000BF00BF00BF2168143151E8001F21F0C8
:1054700001002168143141E80002002AF3D100BF85
:1054800000BF00BF2168143151E8001F21F0400027
:105490002168143141E80002002AF3D100BF202026
:1054A00084F83E000020206300BF00BF21680C315B
:1054B00051E8001F21F0100021680C3141E8000282
:1054C000002AF3D100BFA06BFDF784F8A08DE28D18
:1054D000801A81B22046FFF7E8FE03E740E0A08D86
:1054E000E18D401A1FFA80F8E08DC0B3B8F1000FCB
:1054F00035D000BF00BF21680C3151E8001F21F4F6
:10550000907021680C3141E80002002AF3D100BFFD
:1055100000BF00BF2168143151E8001F21F00100D5
:105520002168143141E80002002AF3D100BF202095
:1055300084F83E000020206300BF00BF21680C31CA
:1055400051E8001F21F0100021680C3141E80002F1
:10555000002AF3D100BF41462046FFF7A6FEC1E670
:1055600005F0800030B106F0800018B1204601F04F
:1055700027FDB7E605F0400030B106F0400018B155
:10558000204601F068FBADE600BFABE6216B0008EA
:1055900010B504460CB9012010BDA06900B100E0AF
:1055A00000BF94F83D0028B9002084F83C00204654
:1055B00000F028F8242084F83D002068C06820F41A
:1055C00000502168C860204601F0E4FB20680069B3
:1055D00020F49040216808612068406920F02A008A
:1055E000216848612068C06840F400502168C860A4
:1055F00000202064202084F83D0084F83E00002034
:10560000CAE7000010B586B00446142101A8FBF7D4
:10561000E1F92E492068884256D100BF0020009051
:105620002B48006840F010002949086008460068CF
:1056300000F01000009000BF00BF00BF00200090ED
:1056400023481438006840F00100214914390860EB
:105650000846006800F00100009000BF00BF4FF452
:10566000C06001900220029000200390032004906B
:105670000720059001A91748FDF7BCFA16481749FD
:1056800008604FF0006048604021144881600021AC
:10569000C1604FF480610161002141618161C1619C
:1056A00001624162FDF720F908B1FCF74CFF00BF31
:1056B0000A486063846300BF002205212520FEF7AD
:1056C000D3F82520FEF7C0F806B010BD0010014049
:1056D0004438024000000240B86402409C030020AD
:1056E00070470000F7B50446154694F83D002028A1
:1056F00046D1019800B10DB90120FEBD00BF94F85C
:105700003C00012801D10220F7E7012084F83C0089
:1057100000BF01982062A584E58400202064212038
:1057200084F83D001748616BC8631748616B0864D3
:105730001648616BC8640020616B086501AE236880
:105740001A1D31682B46606BFDF744F96FF040007D
:105750002168086000BF002084F83C0000BF00BF43
:1057600000BF2168143151E8001F41F0800021681A
:10577000143141E80002002AF3D100BF0020BCE749
:105780000220BAE7856B0008DD6B0008356B000866
:105790007047704700BFFEE7014608684069C0F3E4
:1057A0008020B0B16FF480600A6850610020086307
:1057B000202081F83D00002081F83E00086C40F078
:1057C0000400086400BF002081F83C0000BF0120F5
:1057D00070470020FCE700002DE9F84304460D4621
:1057E00017469846E66A082E04D0012E02D016F518
:1057F000803F06D12068006840F48070216808600E
:1058000008E0206B122805D12068006840F4807001
:10581000216808603B4600224FF001112046CDF878
:10582000008000F087F960B12068006800F48070A3
:10583000B0F5807F02D14FF4007020640320BDE8F2
:10584000F8832069B0F5804F04D105F0FE0021688F
:10585000086112E005F44070F02141EAE01021688F
:10586000086143463A460B49204600F0A6F908B1C4
:105870000120E4E7E8B22168086143463A46054959
:10588000891F204600F099F908B10120D7E70020D0
:10589000D5E70000080001002DE9F84304460F4653
:1058A00015469946DDE908862068006840F4806066
:1058B000216808602068006840F4807021680860F2
:1058C000434600224FF001112046009600F032F9C5
:1058D00060B12068006800F48070B0F5807F02D16C
:1058E0004FF4007020640320BDE8F88307F0FE0049
:1058F00021680861334642463E49204600F05DF982
:1059000008B10120F0E700BF002000902068406946
:10591000009020688069009000BF00BF3246414679
:10592000204600F0ECF950B1206C042805D1206825
:10593000006840F40070216808600120D4E7B9F1E4
:10594000010F03D1E8B22168086117E0C5F3072011
:105950002168086132464146204600F0D0F950B136
:10596000206C042805D12068006840F4007021688C
:1059700008600120B8E7E8B2216808613246414674
:10598000204600F0BCF950B1206C042805D12068F5
:10599000006840F40070216808600120A4E72068D6
:1059A000006840F4807021680860434600224FF090
:1059B00001112046009600F0BDF858B1206800683B
:1059C00000F48070B0F5807F02D14FF40070206445
:1059D000032089E7F8B240F00100216808613346EE
:1059E00042460449204600F0E8F808B101207BE770
:1059F000002079E7020001002DE9F84304468846BB
:105A000015469946DDE908672068006840F4807013
:105A100021680860334600224FF0011120460097AC
:105A200000F088F860B12068006800F48070B0F57C
:105A3000807F02D14FF4007020640320BDE8F8831A
:105A400008F0FE00216808613B46324621492046A5
:105A500000F0B3F808B10120F0E700BF002000908B
:105A600020684069009020688069009000BF00BFF6
:105A70003A463146204600F042F950B1206C0428E5
:105A800005D12068006840F400702168086001209A
:105A9000D4E7B9F1010F03D1E8B22168086117E03A
:105AA000C5F30720216808613A463146204600F0D8
:105AB00026F950B1206C042805D12068006840F414
:105AC0000070216808600120B8E7E8B22168086129
:105AD0000020B3E70200010070B504460D461646EB
