:020000040800F2
:1000000050CD0020DD030008A5A40008EF890008FA
:10001000A1A400087D340008C1EA00080000000027
:100020000000000000000000000000001D030008A8
:10003000753700080000000079030008ADBD000816
:10004000F7030008F7030008F7030008F7030008A8
:10005000F7030008F703000877370008F7030008E4
:10006000F7030008F7030008813700084D35000842
:100070005D350008F70300086D350008F703000838
:100080007D3500088D350008F7030008F7030008E8
:10009000F7030008F7030008F7030008F703000858
:1000A000F7030008F7030008F7030008F703000848
:1000B000F7030008F7030008F7030008058A0008A3
:1000C000F5890008F7030008F7030008F7030008A4
:1000D000F7030008C1C60008D5C60008E9C6000835
:1000E000F7030008F7030008F7030008F703000808
:1000F000F703000891BE0008F70300089D350008CB
:10010000F703000889AB0008F7030008F7030008AD
:10011000F7030008F7030008F7030008F7030008D7
:10012000F7030008F7030008AD350008BD350008E7
:10013000F7030008F7030008F7030008F7030008B7
:10014000F7030008F7030008F7030008A9A4000854
:10015000F7030008CD350008DD350008F703000877
:10016000F7030008F7030008F7030008F703000887
:10017000F7030008F7030008F70300080000000079
:10018000F7030008F703000800F002F800F0B6F8E3
:100190000AA090E8000C82448344AAF10107DA45E2
:1001A00001D100F0ABF8AFF2090EBAE80F0013F07E
:1001B000010F18BFFB1A43F0010318470C0402009B
:1001C0002C0402000A444FF0000C10F8013B13F01D
:1001D000070408BF10F8014B1D1108BF10F8015BA0
:1001E000641E05D010F8016B641E01F8016BF9D193
:1001F00013F0080F1EBF10F8014BAD1C0C1B09D1EA
:100200006D1E58BF01F801CBFAD505E014F8016B5B
:1002100001F8016B6D1EF9D59142D6D370470000ED
:100220000023002400250026103A28BF78C1FBD8FF
:10023000520728BF30C148BF0B6070476E2900F0DD
:100240007986702900F02B8366291EF015836529B5
:100250001EF0128367291EF00F8361291EF00E83A2
:1002600003681B0A28BF41F08001692900F09C82C5
:10027000642900F09982752900F096826F2901F0B7
:100280007681782900F0F782E92901F01181E429CB
:1002900001F00E81F52901F00B81EF2901F0738146
:1002A000F82900F0F6820368DB0928BF41F08001DD
:1002B000632901F09280732901F09780E32901F00E
:1002C0003F84F32901F04484002070471FB51EF0DD
:1002D000C6FA9DE8030000F081FD01F0FDF904007D
:1002E000002000211DF08CF9401C606000200021DE
:1002F0001DF070F9E0601FBD10B510BD01F059FD93
:100300001146FFF7E3FF17F01CFB02F001F803B4FE
:10031000FFF7F2FF03BC01F045FD00002C4B19680C
:100320000868B0E8F04F80F30988BFF36F8F4FF093
:10033000000080F311887047000000000848006842
:10034000006880F308884FF0000080F3148862B6DC
:1003500061B6BFF34F8FBFF36F8F00DF00BF00BFE9
:1003600008ED00E0DFF80C00016841F47001016065
:10037000704700BF88ED00E0EFF30980BFF36F8F97
:10038000134B1A681EF0100F08BF20ED108A20E9E9
:10039000F04F106009B44FF0500080F31188BFF3A4
:1003A0004F8FBFF36F8F1BF0BFFC4FF0000080F347
:1003B000118809BC19680868B0E8F04F1EF0100FEA
:1003C00008BFB0EC108A80F30988BFF36F8F7047C5
:1003D000AC000020EFF3058070470000094880471B
:1003E00009480047FEE7FEE7FEE7FEE7FEE7FEE717
:1003F000FEE7FEE7FEE7FEE704480549054A064B2F
:10040000704700007DBE000889010008508D002063
:1004100050CD002050AD002050AD002070B50646F4
:1004200000F0BCFC056806F10B0020F00704B442A4
:100430009CBF002070BD2B466A68BAB11068A0420C
:1004400010D304F1080188423CBF5068586007D3BC
:100450005168101941601168091B016058601460EF
:10046000101D70BD13465268002AE7D12146284668
:1004700000F0A0FC0028DED170BD70B50446051F59
:1004800000F08CFC0068002C14BF446870BD002C88
:1004900018BFAC423CBF20466468F8D301680A1814
:1004A000AA4218BF456003D12A680546114401607D
:1004B00028684119A1421CBF6C6070BD6168696009
:1004C00021680844286070BD70B50D460646041FBB
:1004D00000F064FCD0F800C0C5B1E6B105F10B0036
:1004E00020F00703AB423CBF002070BD206898425B
:1004F00038BFDCF8042013D3C11A08292FD3E01821
:1005000040F8041B2360FFF7B8FF28E03046FFF7F0
:10051000B4FF002070BD2846BDE87040FFF77EBFE5
:10052000002A18BFA2423CBF94465268F8D3011972
:10053000914216D111680844984212D3C11A082971
:100540003CBF2060506808D35168E01841602168C2
:1005500012681144C91A01602360CCF80400201D00
:1005600070BD181FFFF75AFF050007D021680A1F4A
:10057000211D00F061FB201DFFF77FFF284670BDA5
:1005800053EA020C00F069802DE9F04B4FF00006B1
:10059000002B1FBFB3FA83F503FA05F424FA05F61E
:1005A0005E4012BF1643B2FA82F502FA05F4C5F1B5
:1005B00020051EBF22FA05FC44EA0C04203556EA49
:1005C000044C4FEA144418BF641C4FF000084FF06D
:1005D0000009904271EB030C39D3002919BFB1FA1D
:1005E00081F701FA07F6B0FA80F700FA07F6C7F1CB
:1005F00020071EBF20FA07FC46EA0C062037B6FB90
:10060000F4FCA7EB0507103F07F01F0BCBF120060A
:100610000CFA0BFB2CFA06F644BFB3460026202F3B
:10062000A4BF5E464FF0000B5BEA060C08BF4FF01C
:10063000010B19EB0B09ABFB027C48EB0608C01B56
:1006400006FB02CC0BFB03CC71EB0C01C1E70B46A4
:10065000024641464846BDE8F08B13B54FF0000016
:100660004FF00001AFF30080BDE81C407047000070
:100670007CB51D4616460C00009001D02044401E5B
:10068000074B7B442A4669460190304600F07BFECA
:1006900005461CB10020694600F088FE28467CBD56
:1006A000310D00000FB41CB5084B06AA7B44694607
:1006B0000090059800F067FE04460020694600F0AF
:1006C00075FE20461CBC5DF814FB0000FD0C00000C
:1006D0000FB47CB50C0009AA009001D02044401E44
:1006E000084B7B4469460190089800F04CFE054693
:1006F0001CB10020694600F059FE28467CBC5DF81C
:1007000014FB0000D10C000070B504468569006838
:10071000C10601D5302600E02026C00707D070BDF5
:10072000D4E9012130469047206A401C20626D1EAA
:10073000F6D570BD70B5044685690078C00707D14D
:1007400070BDD4E9012120209047206A401C20621E
:100750006D1EF6D570BD70B50C460546012A05D054
:100760002878800600D5EA69002302E0012305E02D
:100770005B1C934202D2E05C0028F9D1A869E6181C
:10078000C01AA861286A184428622846FFF7BCFFEF
:1007900004E0D5E9012114F8010B9047B442F8D3E5
:1007A0002846FFF7C7FF70BD2DE9F041064600243B
:1007B00010687529314616A510D000F050FB0028AE
:1007C00002DA404213A507E031688A0701D512A575
:1007D00002E0490704D511A5012401E000F048FB1F
:1007E00000210A2206F1240709E0B0FBF2FCB0FB6D
:1007F000F2F302FB1C00303078541846491C0028E4
:10080000F3D123462A463046BDE8F04100F039BB1B
:10081000000000002D0000002B0000002000000060
:10082000F0B40D460188090502D5214C7C4402E054
:100830001F4C7C440E34002100F1240608E002F035
:100840000F071209E75D42EA03721B097754491C3E
:1008500052EA0307F3D102780023120704D5702D62
:1008600006D009B1022311342246F0BC00F009BBC6
:1008700001231034F8E770B504460D462146106890
:1008800000F0F6FA024629462046BDE870400023F3
:10089000C6E7D21D22F00703D3E90023C0E70368AF
:1008A000126843F0200303600823C3610023B7E705
:1008B000F0E901002DE9F05F894604464FF0000A97
:1008C000DFF874B1FB44C0F820A02046E1688847F7
:1008D000002874D0252806D0D4E901219047206A49
:1008E000401C2062F1E700265F462046E168884709
:1008F0002028054607DB312D05D2781910F8200C89
:1009000008B10643F1E7B00701D526F00406C4F8A4
:100910001CA00027C4F818A02A2D09D0284613F0DF
:1009200091F838B304EB8708303DC8F8185019E047
:1009300059F8041B204604EB87029161E16888475F
:10094000012F054618D1E069002820DA26F020069C
:100950001DE0D8F8180000EB800005EB40003038AF
:10096000C8F818002046E1688847054613F06AF881
:100970000028EED1012F0AD02E2D08D12046E168A3
:1009800088477F1C0546022F46F02006C4DBA0697D
:10099000002803DA404246F00106A061F00701D0CA
:1009A00026F010066C2D0BD0682D09D04C2D39D0B7
:1009B0006A2D35D0742D35D07A2D33D016E038E03D
:1009C000E1682F4620468847B842054609D16C2F7A
:1009D00026D04FF48060E1680643204688470546EC
:1009E00004E06C2F1AD04FF4807006430DB3A5F1CC
:1009F0004100192802D8203546F400664A462946A7
:100A0000204626604E46FFF719FC80B101280BD026
:100A1000F61D26F0070000F1080956E74020E4E73C
:100A20008020D8E70020D6E706F104094DE72846E4
:100A300052E7206ABDE8F09F80E9010070B50646E4
:100A400000F0B0F90468054630460A22002100F0A3
:100A5000F7FD2C6070BD10B5431E13F8014F002C3C
:100A6000FBD105E011F8014B002C03F8014B03D03A
:100A7000521EF7D20021197010BD40EA0103024650
:100A800030B59B0710D14FF0013400E008C208C90F
:100A90001D1B9D4315EAC41FF8D013F0FF0102F897
:100AA000011B0DD01B0AF8E711F8013B002B02F8DF
:100AB000013B05D011F8013B002B02F8013BF3D1BB
:100AC00030BD10B5431C02E010F8011B71B1810765
:100AD000FAD14FF0013202C88C1A8C4314EAC211C9
:100AE000F9D0C01A0A0603D0C01E10BDC01A10BD2E
:100AF0000A0401D0801E10BD0902FCD0401E10BDAA
:100B000040EA010370B59B072ED14FF00136042A4D
:100B10002AD308C810C99D1B9D43121F15EAC6158C
:100B200017D0D8B2E1B2401A50EA056110D198B29C
:100B3000A1B2401A50EA05410AD123F07F4024F0C7
:100B40007F41401A50EA052102D1180EA0EB146033
:100B500070BDA342DBD018BA21BA884201D9012066
:100B600070BD4FF0FF3070BD0AB9002070BD10F8A5
:100B7000013B11F8014B63B1A3420AD1521E08D0C8
:100B800010F8013B11F8014B1BB1A34201D1521ED9
:100B9000EDD1181B70BD421E12F8013F002BFBD196
:100BA00011F8013B002B02F8013BF9D17047032AF1
:100BB00040F2308010F0030C00F0158011F8013B7A
:100BC000BCF1020F624498BF11F801CB00F8013B61
:100BD00038BF11F8013BA2F1040298BF00F801CB25
:100BE00038BF00F8013B11F0030300F02580083AFC
:100BF000C0F0088051F8043B083A51F804CBA0E853
:100C00000810F5E7121D5CBF51F8043B40F8043BA7
:100C1000AFF30080D20724BF11F8013B11F801CBDC
:100C200048BF11F8012B24BF00F8013B00F801CBAD
:100C300048BF00F8012B704710B5203AC0F00B8078
:100C4000B1E81850203AA0E81850B1E81850A0E8D0
:100C50001850BFF4F5AF5FEA027C24BFB1E818502A
:100C6000A0E8185044BF18C918C0BDE810405FEA9A
:100C7000827C24BF51F8043B40F8043B08BF704716
:100C8000D20728BF31F8023B48BF11F8012B28BF1B
:100C900020F8023B48BF00F8012B704702F0FF0329
:100CA00043EA032242EA024200F002B84FF0000297
:100CB0000429C0F0128010F0030C00F01B80CCF16E
:100CC000040CBCF1020F18BF00F8012BA8BF20F8DC
:100CD000022BA1EB0C0100F00DB85FEAC17C24BF30
:100CE00000F8012B00F8012B48BF00F8012B7047DA
:100CF0004FF0000200B5134694469646203922BFB5
:100D0000A0E80C50A0E80C50B1F12001BFF4F7AFFF
:100D1000090728BFA0E80C5048BF0CC05DF804EBE1
:100D2000890028BF40F8042B08BF704748BF20F84F
:100D3000022B11F0804F18BF00F8012B704710B53F
:100D4000044610F0030F08BF11F0030F40F01580A8
:100D50004FF0013E121FC0F20E8051F8043BA3EB8E
:100D60000E0C2CEA030C1CEACE1C08BF40F8043B16
:100D7000F0D0A1F1040102F10402521E08DB11F8C7
:100D8000013B002B00F8013BF7D11146FFF78EFF26
:100D9000204610BD704770477047000000487047FC
:100DA000F48C002000487047EC8C0020704770479E
:100DB0007047704738B504460A4600206946AFF3CD
:100DC0000080002808BF38BD02460099204600F088
:100DD00087FC012038BD012000F0C5BFF8B5AFF396
:100DE0000080054600200C46102000BF0646A819CA
:100DF000A0420DD9324669460020AFF300800700BB
:100E000008BF00F0B0FF0098A04218BF0546C41903
:100E1000FFF7C4FF05600746F01D20F007004619E4
:100E2000284600F00AF8B44208BFF8BDA21B3146BC
:100E30003868BDE8F84000F053BC00210160C0E90B
:100E4000011070471020704710B5FFF7ABFF006826
:100E500010BD10B50446FFF7A5FF046010BD09687A
:100E60004A0501D540B27047C905FCD500B27047AC
:100E700009684A0501D5C0B27047C905FCD580B2E2
:100E800070472DE9F0470D4699469246044600F119
:100E900024080168880604D5E06921F0100121606A
:100EA00000E00120A84201DD471B00E00027A16906
:100EB0007A1902EB0900081AA0612078C00602D452
:100EC0002046FFF721FC002608E0D4E901211AF8AA
:100ED00006009047206A401C761C20624E45F4DBD9
:100EE0002078C0060AD52046FFF70EFC06E0D4E9BC
:100EF000012130209047206A401C2062381EA7F153
:100F00000107F4DC07E0D4E9012118F80500904757
:100F1000206A401C2062281EA5F10105F3DC204652
:100F2000FFF708FC2078000602D50220BDE8F08714
:100F30000120FBE711680268006A530501D50870BB
:100F40000AE0D30501D5088006E0130603D5C217D1
:100F5000C1E9000200E008600120704770472DE9F8
:100F6000FF4F0C461E464FF0FF378BB0D2E9000111
:100F7000DDF860800A908A46C1F30A5505B93D46FE
:100F8000002108464FF00000BAF1000F00F44000C5
:100F900005DA00EB80004FF4400101EA50004FEA0F
:100FA0009059B9F1010F00DDB9460A9850EA4A009C
:100FB0000ED044F61050A5F2FF3545432F14B8F17A
:100FC000000F1ED07542291E1EDDC9F100021CE073
:100FD000B8F1010F4FF0000001D0302103E0F243DF
:100FE00005E02154401CB042FBDB304600220021CA
:100FF00021540B99C1F80880C1E900200FB0BDE869
:10100000F08FBD1B6D1CDEE74A4600DA694206A878
:1010100000F012FE06AB93E8070003AB83E807007D
:1010200050460A9901F043FC8DE80700A0F50050F6
:101030001F3800900398002D0ADD42F21F014A4636
:101040000844002303A90390684601F0EFFE09E07D
:10105000A0F500504A461F38002303A903906846B4
:1010600001F00EFF8DE807000004000C03D04FF0E4
:10107000FF30410800E01046B8F1000F03D0002215
:10108000009215461EE0751E05D400F043FB303279
:1010900062556D1EF9D5B3460122084302D00022E5
:1010A0007F1C04E02078302801D100227F1E002A16
:1010B000099784D01DE0112D07DA00F02BFB3032A8
:1010C00062556D1C50EA0102F5D1084302D0009828
:1010D000C8B10EE00021681E05E0235C625C635429
:1010E0002254401E491C8142F7DBAB46A81B401E20
:1010F0000990002004F80B000B98099AC0F80880AA
:10110000C0E9002B7AE711264FF0000857E72DE9D8
:10111000F04F88460446D21D22F0070191B0D1E974
:101120000001CDE90A0111F0D3FA02460B98C00F75
:1011300001D02D2007E02068810701D52B2002E097
:10114000202101EAC000032A099001D0072A05DB0B
:1011500003464146204600F0A9FC0BE120788006BA
:1011600001D5E06900E00620B8F1650F814606D0A0
:10117000B8F1660F18D0B8F1670F70D131E00020D8
:10118000B9F1110F009001DB112301E009F1010316
:101190000AAA01A90CA8FFF7E2FEDDE90C700026FF
:1011A00009F10105834647E001204B4600904FF0CE
:1011B00000470AAA01A90CA8FFF7D1FEDDE90DB08E
:1011C0000C995D46002610B909F101000D18B9EB24
:1011D000050003D4C0F1FF3609F10105A5EB0900B4
:1011E0002BE0B9F1010F01DA4FF001090020B9F14C
:1011F000110F0090484601DD112300E003460AAAC2
:1012000001A90CA8FFF7ABFEDDE90C704D460026E6
:101210008346207800070AD4AB4500DA5D4601A872
:10122000012D04DD411911F8011C302907D04F456B
:1012300002DA17F1040F04DA012082460FE06D1E76
:10124000EEE7002F02DCED1B3E4403E0781CA842D1
:1012500000DD7D1CB81B00F1010A4FF0004720782B
:10126000000703D4AA4501DB4FF0FF3A0021B7F194
:10127000004F0DF143088DF8431024D002202B239A
:10128000002F01DA7F422D230A21021EA0F1010066
:1012900000DC5FB197FBF1FC97FBF1F201FB1C7CDA
:1012A00017460CF1300C08F801CDEEE7A8F101006B
:1012B00003702188090501D5452100E06521A0F1D1
:1012C000010800F8011C09980FA9A1EB0807FF1DF0
:1012D00000B10120411901EBEA70A1693844081AF4
:1012E000401EA0612078C00602D42046FFF70CFA09
:1012F000099828B1D4E901219047206A401C206256
:101300002078C00622D52046FFF7FEF91EE0002E09
:1013100004DBB34502DD01A8805D00E03020D4E9A4
:1013200001219047206A401C2062761CAAF101002E
:101330005FEA000A0AD100F0CFF9C0680168405C9A
:10134000D4E901219047206A401C2062281EA5F1A3
:101350000105DCDC07E0D4E9012118F8010B904716
:10136000206A401C2062381EA7F10107F3DC2046EA
:10137000FFF7E0F9032011B041E6000001694A1CC3
:1013800002610878704700B58FB0CDE901310021C6
:10139000059105497944CDE9031011466846FFF7E8
:1013A00089FA0FB000BD0000E5FFFFFF0A6802F8F0
:1013B000010B0A607047D1E900239A4202D2531C04
:1013C0000B601070704710B5436913B1AFF3008024
:1013D00001E0FFF7C0F9012010BD127800F12401EF
:1013E0000A7000224A700122EDE711684FF0FF32C7
:1013F000E9E700002DE9FF5F15468A460446DFF85D
:10140000AC80F8440027D8E900103E46CDE9001032
:1014100010E03AF816106A4602A800F07FFC411C62
:1014200007D02178890603D5E269391891420DD891
:101430000744761C2078800602D5E069B84205DDB5
:10144000AE42E6DB3AF816000028E2D1A069C01BE4
:10145000A0612046FFF758F9D8E90010CDE9001047
:10146000002017E03AF818106A4602A800F056FC6F
:10147000B0F1FF3F81460BD000250DF1080B05E0D0
:10148000D4E901211BF8050090476D1C4D45F7D3A9
:1014900008F10100B0428046E4DB206A3844206253
:1014A0002046FFF747F9BDE8FF9F000096DF0100E7
:1014B0002DE9F0418046D21D22F007020025D2E935
:1014C0000002F52915A614D0011E72F1000106DAFA
:1014D0000023D0EB030063EB020211A608E0D8F86A
:1014E00000108B0701D50FA602E0490701D50EA613
:1014F00001251146002408F1240704E000F00AF950
:1015000030323A55641C50EA0102F7D12B4632467C
:1015100021464046BDE8F041FFF7B3BC00000000A3
:101520002D0000002B0000002000000030B400213E
:1015300000F1240408E002F00705D208303542EA41
:101540004372DB086554491C52EA0305F3D1046871
:10155000002310A2250707D5A40600D421B1C46931
:1015600001230DA2641EC46130BCFFF78ABC10B514
:10157000044621461068FFF77BFC02462046BDE882
:1015800010400023D2E7D21D22F00701D1E9002349
:10159000CCE7000000000000300000000FB4002382
:1015A00000B589B00CA900910B99CB60214B7B440D
:1015B0000693214B7B44079304236FF00042CDE94F
:1015C00001321E4A7A446B460892024600201DF002
:1015D000B7F909B05DF814FB70B506464FF0FF305F
:1015E00015460C46324686B00091CDE901016946A8
:1015F0000020049004A8FFF7D1FF024604982118A8
:1016000025B108B1084600E020462860049800286B
:101610000DD0002A02DD0098884208D03246081B0F
:1016200069460094CDE9010404A8FFF7B7FF06B0AE
:1016300070BD0000A7050000BF050000D701000035
:101640002DE9F04791460F4680460446002614F8DF
:10165000015B2DB100F038F80068405DC007F6D19D
:101660002B2D02D02D2D18D0641E4A463946204617
:1016700000F092FA27B13968A14201D1C7F8008081
:101680004FF0020471050BD54042002803DDFFF73F
:1016900089FB0460A007BDE8F08746F48066E4E7B4
:1016A0000028F8DAFFF77EFB04606FF00040F2E7F5
:1016B00010B500F05FFBBDE8104000F04FBB00002C
:1016C00000487047EC8C002010B500F005F8001DB4
:1016D00010BD00BF2DBF0100004870470C8D0020D9
:1016E000034640688C46002818BF88423CBF03462A
:1016F0004068F8D318681844884207D00CF10300FA
:1017000020F00700001D411A521A0146081D0A6008
:10171000FEF7B3BE30B5B0F10A024FEA900E71F198
:1017200000034EEA817EB0EB0E0061EB91014FEABF
:10173000101E4EEA017E10EB0E0041EB11114FEA34
:10174000102E4EEA016E10EB0E0041EB11214FEA14
:10175000104E4EEA014E10EB0E0041EB11414018C5
:1017600041F100014FEAD00040EA41704FEAD10157
:1017700010EB80054FEA810444EA907444EB0104C5
:101780006D1944EB0404521BA3414FF0000348BF02
:101790000A3200D530BD401C41F1000130BD10B50A
:1017A0000446FFF791FF0068005D00F0010010BDE6
:1017B0002DE9F04F04460D46D21D22F0070089B0F6
:1017C000D0E900974846394610F082FF0246F80FEC
:1017D00001D02D2307E02068810701D52B2302E0EB
:1017E000202101EAC0038DF820300BB1012000E078
:1017F0000020032A824601D0072A04DB294620461E
:1018000000F054F93FE12078800601D40D2500E076
:10181000E569C7F30A560D2D49DA00214FEA175B37
:1018200008464FF00000002F00F4400007DA00EBFC
:1018300080004FF4400100EBD07001EA6000811598
:10184000012901DD4FF0FF3100224FEA850CBCF188
:10185000180F06D31346ACF118004FF08052C24067
:1018600003E04FF4801323FA0CF30CF10C0CBCF1E1
:10187000200F04D3ACF1200C09FA0CF001E007FAB8
:101880000CF000294FF0004801DD18B90FE00ED12F
:1018900040450CD319EB02095F4121B9404502D103
:1018A0009F4329EA0209BBEB175F00D0761C208812
:1018B000000502D57B48784402E07A48784419381C
:1018C00008AA302302F80A30037C0AF10101002E35
:1018D0000AF1020A53546A4602DC4FF0300101E07B
:1018E0004FF031014FF001088DF8001002D0A6F240
:1018F000FF3603E059EA470100D06B4E002D02DCB1
:101900002178090704D54FF002082E218DF8011027
:10191000C44600210BE0C7F303433F01C35C491CED
:101920006D1E02F80830052908F1010801DA002DC2
:10193000F1DC00210CE000EB1973491C1B786D1ED3
:10194000082902F808304FEA091908F1010801DAFC
:10195000002DF0DC21688B0602D516E0A8F1010805
:10196000E04505DD02EB080313F8013C302BF5D010
:10197000B8F1000F09DD02EB080313F8013C2E2B30
:1019800003D1090701D4A8F10108002D05DD3E218E
:1019900002F808106D1E08F10108407C002E02F8C4
:1019A000080008F1010804DA2D20764202F8080048
:1019B00002E02B2002F808000A214FF47A708642D8
:1019C00008F101080BDB96FBF0F3303302F8083026
:1019D00096FBF0F308F1010800FB136601E0642EAA
:1019E0000CDB642096FBF0F3303302F8083096FBF2
:1019F000F0F308F1010800FB136601E00A2E06DB94
:101A000096FBF1F0303002F8080008F1010896FB6F
:101A1000F1F001FB1060303002F80800A16908F114
:101A2000010808EB050202EB0A00081AA061207801
:101A3000C00602D42046FEF767FE216A08AE01EB1D
:101A40000A00206204E0D4E9012116F8010B904756
:101A5000BAF1010AF7D22078C00602D52046FEF777
:101A600053FE6E4609E016F8010B3E280FD0D4E96C
:101A700001219047206A401C2062B8F10108F2D28F
:101A80002046FEF757FE09B00320BDE8F08F206A1C
:101A90002844206203E0D4E90121302090476D1EE4
:101AA000EBD3F8E71DDB010002FCFFFF2DE9F0415D
:101AB0001F46044603260168072A01F4006004DB80
:101AC00008B116A505E016A503E008B115A500E0CC
:101AD00015A521F010002060A069C01EA0610FB103
:101AE000401EA0612046FEF70FFE4FB1D4E9012150
:101AF00038469047206A401C2062C01C206206E0E5
:101B0000206AFAE7D4E9012115F8010B9047761E07
:101B1000F8D22046FEF70EFEBDE8F0814E414E00A1
:101B20006E616E00494E4600696E660010B54369ED
:101B300013B1AFF3008001E0FFF75CFC012010BDA2
:101B4000128800F1240182840022C2840122EDE780
:101B500011684FF0FF32E9E7426842B1016811F8BD
:101B6000013B23B1521EC0E9001218467047012103
:101B7000C160881E704742685AB1C368016843B9A2
:101B800083688B4205D0491E521CC0E90012002018
:101B900070474FF0FF3070472DE9F05F82461546E1
:101BA0008B4600270AF10104B9460078302801D09D
:101BB0009DB113E014F8010B0127782803D05828B1
:101BC00001D045B10AE00DB1102D07D1002714F85E
:101BD000010B102502E0082500E00A250026B0468A
:101BE0000EE005FB080005FB06F101271FFA80F84F
:101BF00001EB1046B6F5803F00D3B94614F8010B4F
:101C0000294600F0FBF80028EBDABBF1000F05D005
:101C10000FB1641E00E05446CBF80040B9F1000F4C
:101C200006D0FFF7BFF802210160C81EBDE8F09F93
:101C300048EA0640FAE700002DE9F04781461646DB
:101C40008AB0354878440DC88DE80D003248784494
:101C5000801C03AC0DC884E80D0041F69B3008449D
:101C6000372190FBF1F290FBF1F5A5F1800501FB26
:101C700012041B3C02D56442012000E00020DFF882
:101C800098A080460027FA44AAF1BE0A0EE0E007B9
:101C90000AD03246684607EB470101230AEB81016F
:101CA00001F0EEF88DE8070064107F1C002CEED1E7
:101CB000194F7F44AE3F19E0E80715D007EB041039
:101CC0000DF1180A90E80E008AE80E00C068F04294
:101CD00001D1981908903246012306A903A801F002
:101CE000CFF803AB83E807006D10641C002DE3D12F
:101CF0004FF0010332466946B8F1000F03A802D045
:101D000001F094F801E001F0BBF8C9E90001C9F85D
:101D100008200AB0BDE8F08720D8010070B516464B
:101D20000C460546FFF7D0FC036893F80101012833
:101D300006D0FF2C0FD8185D68B101202C7070BD43
:101D4000D3F807013246214603F20713034428461D
:101D5000BDE8704018474FF0FF3070BD002801D03B
:101D600000F020B8704710B500F0F4FABDE810405C
:101D7000FFF7F4BF10B5002102A000F0D2FA012055
:101D800010BD00005349475056464E3A20507572D8
:101D900065207669727475616C20666E2063616C73
:101DA0006C65640001491820ABBEFEE72600020006
:101DB00070477546FFF784FCAE46050069465346FA
:101DC00020F00700854618B020B5FEF715FBBDE8EA
:101DD00020404FF000064FF000074FF000084FF092
:101DE000000B21F00701AC46ACE8C009ACE8C00923
:101DF000ACE8C009ACE8C0098D4670473A2800D26B
:101E0000303820F02002412A01D3A2F13700884265
:101E100001D34FF0FF3070472DE9FF4F06468BB0DE
:101E20000878FF2806D0491C2D2805D000244FF043
:101E3000000908E000200CE00124F8E709EB890321
:101E4000491C00EB43090878FF28F7D114B1C9F108
:101E500000008146107800252C46AA4629462D28E8
:101E600001D02B2804D1521C2D2813D000208246EB
:101E70008B461078FF280FD04FF0000C0A21521C1F
:101E8000A5FB017804FB018105FB0C11C5194BEB87
:101E90000104EEE70120EAE7002108464FF00000C8
:101EA000BAF1000F02D000EB80004008C0F3815768
:101EB000012F01DD4FF0FF370E9955EA040009EBC1
:101EC00001080BD04FF0020918F5FA7F16DA4FEA35
:101ED000CA70002F706008DD012007E04FEACA7069
:101EE000C6E900B00FB0BDE8F08F00203060FEF70B
:101EF00059FFC0F800901821084616E0B8F5FA7F9F
:101F000018DD002F02DAF748784401E0F6487844FB
:101F1000D0E90010C6E9001040EACA707060FEF710
:101F200041FFC0F80090142108460FB0BDE8F04F03
:101F30001CF09FBC002108464FF00000B8F10001E2
:101F4000099002DAC7F1000200E03A4601DAC8F16E
:101F5000000106A8FFF770FE06AB93E8070003AB8D
:101F600083E8070044F23E005BEA04010090584613
:101F700004D144F21E012C465D460091210C090457
:101F8000014306D10099240444EA15442D04103974
:101F9000009104F07F41014306D10099240244EAF4
:101FA00015642D020839009104F07041014306D1F7
:101FB0000099240144EA15742D01091F009104F0D1
:101FC0004041014306D10099A40044EA9574AD0054
:101FD000891E009104F00041084304D100986D1956
:101FE0006441401E00904FF001033A466846B8F144
:101FF000000FCDE9014503A902DD00F056FF01E025
:1020000000F029FFBAF1000F04460D4601D084F01C
:102010000044002108464FF00000099940F2FF7784
:10202000484010F00C0F07D124F00040284303D0A3
:10203000C4F30A50B84212D1FEF7B4FEC0F80090C3
:10204000C4F30A50B8420AD1A8487844D0E9001035
:10205000C6E9001004F000410843706042E7C6E999
:1020600000543FE72DE9FF4F1F464FF0000A4FF0A5
:10207000FF38454691B0D7E90146CDF83CA0FFF7BF
:102080002BFBC0680168405C1090B96912986D1C08
:102090008847396A814688470028F6D1B9F1FF3F61
:1020A0000AD0002E24F4D06411DDB9F12B0F08D032
:1020B000B9F12D0F0BD102E0404615B013E744F4FF
:1020C0008064B96912986D1C8847761E8146600548
:1020D00004A901D52D2000E02B20002E01F1010BD9
:1020E0000DF130088DF810003FDDB9F1690F08D00F
:1020F000B9F1490F05D0B9F16E0F02D0B9F14E0F09
:102100001CD13B4601A8009580E85002DDE912127F
:102110006FF002001CF018FCC11CCED10EE0B969B2
:1021200012986D1C884781461398761E44F40074FB
:1021300005600F98401C002E0F9016DDB9F1300F8E
:10214000EDD0B9F1780F02D0B9F1580F0DD10F9839
:1021500001280AD13B46CDE90054DDE91212001FE7
:1021600002961CF0EFFBC11CA7D1109989453ED106
:1021700044F0800406E01399681CAAF1010A44F4B3
:1021800000740860B9696D1C1298761E8847302863
:102190008146F0D02BE01099894505D1200603D463
:1021A000761E44F0800418E0484611F04BFC08B35A
:1021B000761E0DF123018B4544F4007408D2A9F179
:1021C00030000BF8010B200607D5AAF1010003E04F
:1021D000200602D40AF101008246A00502D5139917
:1021E000681C0860B96912986D1C88478146002EEA
:1021F000D1DC53E0002E51DDB9F1650F02D0B9F109
:10220000450F4BD1A00549D5B9696D1C1298761EB2
:1022100024F440748847002E81460CDD2B2804D01E
:10222000B9F12D0F07D144F48074B96912986D1C6F
:102230008847761E8146E00501D52D2100E02B213F
:1022400008F8011BCDF8008021E0761E0DF1390160
:10225000884544F400740CD2A9F1300010F0FF005E
:1022600088F8000002D10099884509D908F10108D1
:1022700006E0E00501D51E4801E042F20F708246FB
:10228000B96912986D1C8847814613980560002E25
:1022900004DD484611F0D6FB0028D6D1F969129822
:1022A0008847FF2053468BF8000088F80000002084
:1022B0000A900B9004AA0CA90AA8FFF7ADFDA0058F
:1022C00002D46FF00100F8E614F0240F12D0E007FA
:1022D0001CD13868DDE90A12031D3B600068C0E9C3
:1022E000001213E0E4E60100D6E601009AE50100E1
:1022F000F1D8FFFF0AA9684611F0E6FAE00705D118
:102300003868009A011D3960006802602846D4E6EA
:1023100010B50446AFF300802046BDE81040FDF73D
:10232000F6BF70B505460C460A2000E06D1C00F0B3
:1023300079F835B128780028F8D102E0641C00F063
:1023400071F814B120780028F8D1BDE870400A2057
:1023500000F068B810B5012805D0002103A0FFF7F0
:10236000E0FF012010BD09A1F8E7000053494752E2
:10237000544D454D3A204F7574206F662068656155
:1023800070206D656D6F7279000000003A2048651D
:102390006170206D656D6F727920636F72727570F8
:1023A000746564004FF0013C50F8042B51F8043B75
:1023B0009A4221D1A2EB0C03934313EACC1317D119
:1023C00050F8042B51F8043B9A4215D1A2EB0C03B0
:1023D000934313EACC130BD150F8042B51F8043B70
:1023E0009A4209D1A2EB0C03934313EACC13DBD03E
:1023F0004FF00000704700BFD01A01BAB1FA81F166
:1024000001F0180122FA01F0CB40C1F12001DBB24A
:10241000C0B2C01A2CFA01F3D11A914311EAC311C8
:10242000E6D1704708B569468DF800000320ABBEC1
:1024300008BD00002DE9FF4F1F464FF03C0987B053
:102440004FF00042DDE9141001F10108DDF858A059
:1024500002EA40500390002005908346054604465A
:102460000490B969461E08988847AAF1010A0290AB
:10247000BAF1000F3BDD02982E2815D01021FFF78E
:10248000BDFC00282EDB4FF0010B0599014317D04E
:10249000B9F1000F0BDB4A46C11700F0F5F905430F
:1024A0000C43A9F1040905E0012004900BE008B1F8
:1024B00045F0010501200590049820B9361D02E081
:1024C000049800B1361FB969089808F101088847D7
:1024D000BBF1000FAAF1010A0290C9D00999C1F815
:1024E0000080C5E70298702808D0502806D0F96906
:1024F00008988847BBF1000F14D04FE000200290ED
:102500000120BBF1000F049009D0B969089808F1C7
:1025100001088847AAF10109B9F1000F07DCF96940
:10252000089888476FF001000BB0BDE8F08F2B28AA
:1025300004D02D280CD14FF0FF300490B9690898D1
:1025400008F101088847A9F10109B9F1000FE6DD9A
:10255000411CE4D00A21FFF751FC0028DFDB02997F
:1025600008F1010801EB810100EB41000290B9691B
:10257000089888470A21FFF741FC099AA9F1010947
:10258000B9F1000FC2F8008001DD0028E7DAF9692F
:10259000089888470499029800FB016655EA0400F0
:1025A00004D004F04041090002D006E0039898E00E
:1025B000A40044EA9574AD00B61E04F00041080082
:1025C00002D16D196441761E159810F0240F03D0C6
:1025D0004FF00B095C4803E04FF028096FF07D00D5
:1025E0008246564507DAAAEB06018944B9F1410F44
:1025F00001DD4FF0410901200021A9F1010200F0A5
:1026000043F9024628400B462140084301D00121EE
:1026100000E00021501E029143F1FF31284021408B
:10262000084301D0012000E000200299834651EACE
:102630000B014FD0002108464FF00000039900F431
:10264000400039B100EB80004FF4400100EBD07046
:1026500001EA60008015012802DD4FF0FF3000E044
:1026600013D0401C36D0029860B3BBF1000F0CD1E0
:102670004A460120002100F007F928402140084384
:1026800001D0012000E00020E0B101204A460021F5
:1026900000F0FAF8034640190A4661412D1A8C41B0
:1026A00011D3B9F1400F09DD159810F0240F02D0B5
:1026B000AAF1340603E0AAF1170600E0761C002513
:1026C0004FF0004406E05B1E42F1FF3220EA0305B2
:1026D00021EA0204CAF10100B04206DA1B4903985C
:1026E00008430190002000900EE0039AC4F3D32128
:1026F000E80A0A43164940EA44500A433146CDE904
:102700000002684611F094F9159810F0240F0BD0D0
:102710001598C00715D13868DDE90012031D3B602C
:102720000068C0E900120CE002A8694611F0CCF87C
:102730001598C00705D13868029A011D39600068F4
:1027400002604046F0E6000002FCFFFF0000F07F60
:102750000000F03F2DE9FF4F92461D4685B04FF037
:102760000041DDE9124BDDE914727F1E01EA4B5096
:10277000414940F0FF4940EA0108002122F02000D1
:102780004928049102D04E2828D04CE03BA00126D5
:1027900007C88DE80700A9690698641C88477F1E52
:1027A000014606D41DF8060018B121F0200181422F
:1027B0000BD0E96906988847032E34D0082E32D012
:1027C0006FF0010009B0BDE8F08F761C032E01D038
:1027D000082EE0D1601CCAF80000DCE7A969069861
:1027E000641C88477F1E2AD420F02000412826D16F
:1027F000A9690698641C88477F1E20D420F0200019
:102800004E281CD1A9690698641C88477F1E48F48D
:10281000002849F48009CAF8004001D4282806D0CD
:10282000E969069888475FEACB7012D022E0A9696F
:102830000698641C88477F1E01D4002803DAE969E2
:1028400006988847BCE72928F1D1641CCAF80040E3
:10285000E9E71BF0240F07D028680499031D2B60BB
:102860000068C0E9001805E02868021D2A600068B9
:10287000C0F800902046A5E70000F07F494E464989
:102880004E49545900000000B2F120030AD5C2F1AC
:10289000200301FA02F120FA03F300FA02F041EA00
:1028A0000301704700FA03F14FF0000070475FEA40
:1028B000400C08BF91F0000F4FEA8C234FEAC12271
:1028C00043EA51514FEA1C5018BF00F5F0404FEA5F
:1028D000300018BF41F000415FEA6C5C00F02980D5
:1028E000BCF1FF3F08BF40F080407047130C06BFAB
:1028F00012044FF0100C4FF0000C130E04BF120224
:102900000CF1080C130F04BF12010CF1040C930F0F
:1029100004BF92000CF1020CD30F04BF52000CF163
:10292000010C11464FF00002A0F11F00A0EB0C00BB
:10293000704711F0004F08BF704731F000413FF47D
:10294000D5AF0B0C06BF09044FF0100C4FF0000C74
:102950000B0E04BF09020CF1080C0B0F04BF090198
:102960000CF1040C8B0F04BF89000CF1020CCB0F8F
:1029700004BF49000CF1010CCCF12003A0EB0C00CA
:1029800022FA03F302FA0CF241EA030100F101001A
:10299000704720F07F4C80EA030023F07F47ACEBC8
:1029A000070303F57C5300F0004003F1FF032DE91A
:1029B00080494FEA154B09B44FEA144325EA0B4E00
:1029C00024EA03480FF2042606EB132749083E7851
:1029D0005FEA320203FB0667C7F5000707FB06F64E
:1029E0004FEA54374FEAD64606F1020607FB066C5B
:1029F000CCF1005C4FEA1C472CEA074C07FB06F4BD
:102A00000CFB06F504EB15464FEA961634BF002082
:102A10004FF000404FEAD13706FB07FC4FEA1C4C51
:102A20000CFB0BF7D21B03FB0CF761EB07010CFB54
:102A30000EF7B0EB074072EB17420CFB08F734BF00
:102A4000A2EB0742B2EB074261EB17414FEA0C449D
:102A50004FEA910706FB07FC4FEA1C4C0CFB0BF7F7
:102A6000B0EBC74072EB573203FB0CF734BFA2EB5D
:102A7000C742B2EBC74261EB57310CFB0EF7B0EB2C
:102A8000C70072EB57720CFB08F734BFA2EBC7020A
:102A9000B2EBC70261EB5771039F4FEA816141EAD4
:102AA000921104EBCC044FEAD1374FEA826206FB65
:102AB00007FC42EA90124FEA80604FEA1C4C0CFB84
:102AC0000BF7D21B03FB0CF761EB07010CFB0EF7B6
:102AD000B0EB074072EB17420CFB08F734BFA2EBD8
:102AE0000742B2EB074261EB17414FEA8C554FEAC0
:102AF000910704EB9C2406FB07FC4FEA1C4C0CFBE3
:102B00000BF7B0EBC74072EB573203FB0CF734BF47
:102B1000A2EBC742B2EBC74261EB57310CFB0EF799
:102B2000B0EBC70072EB57720CFB08F734BFA2EB97
:102B3000C702B2EBC70261EB577115EB4C254FEAA8
:102B4000816141EA92114FEA82624FEAD13742EA4B
:102B5000901206FB07FC44F100044FEA80604FEA44
:102B60001C4C0CFB0BF7D21B03FB0CF761EB0701B2
:102B70000CFB0EF7B0EB074072EB17420CFB08F7AB
:102B800034BFA2EB0742B2EB074261EB174115EBF2
:102B90001C154FEA813141EA92414FEA823242EA02
:102BA00090424FEA80304FEA0C7644F1000448EA44
:102BB00003434EEA0B484FF0000EB2EB080C71EBEA
:102BC000030724BF624639464EEB0E0E4FF0000B52
:102BD0000018524149414BEB0B0BB2EB080C71EB67
:102BE00003077BF1000B24BF624639464EEB0E0E05
:102BF0004FF0000B0018524149414BEB0B0BB2EB6D
:102C0000080C71EB03077BF1000B24BF62463946C9
:102C10004EEB0E0E51EA020718BF46F0010616EB06
:102C20000E7655F1000254F1000103D5BDE889018B
:102C3000BDE80088BDE88901BDE80048B6195241E9
:102C400041EB0101A3F10103704780807F7E7D7C11
:102C50007B7A7978777676757473727171706F6E2E
:102C60006E6D6C6C6B6A6A696868676666656464D9
:102C7000636362616160605F5F5E5E5D5D5C5C5B63
:102C80005B5A5A59595858575756565555555454D2
:102C9000535352525251515050504F4F4F4E4E4D30
:102CA0004D4D4C4C4C4B4B4B4A4A4A49494948487C
:102CB00048474747474646464545454444444443BC
:102CC00043434342424242414141000046EA0646F4
:102CD000A3F570534FEA164646EA42564FEAD2220F
:102CE00042EA415210B54FEAD121A3F1010300F0AD
:102CF0002FF820F0004000F1020C00F0004701EB3B
:102D000000501146BCF5006F40EA070000D210BD2C
:102D1000BAF1000F0AD01CB503B44FF004004FF015
:102D200004014FF000000FBCBDE810404FF000015F
:102D3000BBF1010FB9BF04484FF0FF310348002138
:102D400040EA070010BD00BFFFFFEF7F0000F07FEB
:102D5000002B9C4630D477002BD01CB54FEA3707A8
:102D600003B44FF010004FF01001BAF1000F06D07D
:102D7000BCF1000FDCBF40F0080040F008014FF04C
:102D800000000FBCBDE810400BF1010BBBF1010FBF
:102D900008BF5FEA170722BF12F1010211F101011A
:102DA0004FF0004143F1000300F0004043EA00000F
:102DB0007047F9D35708D0E746EA064613F1400FAB
:102DC0004FEA16461FDD13F1200FDFBF16430A46F8
:102DD000002120335B42BED0C3F1200746EA0646FD
:102DE00002FA07F74FEA164646EA0706C3F120073C
:102DF00022FA03F201FA07F721FA03F14FF0000378
:102E000042EA0702A7E746EA020646EA06464FEA12
:102E1000164646EA0106BCBF46EA0646360C4FF0A7
:102E200000034FF000024FF0000194E72DE9804CC1
:102E30009A46934670B491E8380007C831EA400CCE
:102E400048BF34EA430C03D5FFF7A3FDFFF780FF2B
:102E5000F0BCBDE8008C2DE9804C9A46934670B4D6
:102E600091E8380007C831EA400C48BF34EA430C07
:102E700003D5FFF78EFDFFF729FFF0BCBDE8008CFE
:102E80002DE9804C9A46934670B491E8380007C803
:102E900010F0804F08BF13F0804F03D100F01AF8F4
:102EA000FFF756FFF0BCBDE8008C2DE9804C9A4638
:102EB000934670B491E8380007C810F0804F08BFFF
:102EC00013F0804F03D100F005F8FFF7FFFEF0BCD0
:102ED000BDE8008C20F07F4780EA030023F07F4CA0
:102EE00007EB0C03A3F57C5300F00040A3F1FE03B5
:102EF00092F0000F00F0B38095F0000F00F07780A3
:102F00002DE901494FEA11404FEA144621EA0048F1
:102F100000FB06FC24EA064708FB06F607FB08F858
:102F200000FB07F718EB06484CEB164C4FEA124B28
:102F300018EB07484FEA15464CEB174022EA0B4EB8
:102F40000BFB06FC25EA06470EFB06F607FB0EFE0A
:102F50000BFB07F71EEB064E4CEB164C4FF0000632
:102F60001EEB074E4CEB174B18EB0B0840F1000023
:102F700018EB0E0B58EB000840F100008F1A4FF0D1
:102F800000013CBFC943661B14BFB5EB040C002114
:102F90003CBFC943F61B4FEA17444EEA8E0E27EAA0
:102FA00004454FEA1C4704FB07622CEA074C05FB6B
:102FB00007F70CFB05F604FB0CFC16EB074642EB8F
:102FC000174216EB0C4642EB1C421BEB060658EB75
:102FD0000202414146EA9E0601D5BDE80189B619C3
:102FE000524141EB0101A3F10103BDE801894FEA20
:102FF00014454FEA114724EA054621EA074C05FB30
:1030000007F406FB07F70CFB06F105FB0CFC11EBC4
:10301000074144EB17444FEA124711EB0C4144EBD4
:103020001C4422EA074C05FB07F206FB07F70CFBE2
:1030300006F605FB0CFC16EB074642EB174216EBB7
:103040000C4642EB1C456A1854F1000148BF70471A
:10305000B619524141EB0101A3F10103704795F00C
:10306000000F37D04FEA11424FEA144721EA0246D7
:1030700024EA074C02FB07F106FB07F70CFB06F4FA
:1030800002FB0CFC14EB074441EB17414FEA1547D8
:1030900014EB0C4441EB1C4125EA074C02FB07F5FD
:1030A00006FB07F70CFB06F602FB0CFC16EB0746CB
:1030B00045EB174516EB0C4645EB1C42121951F136
:1030C000000148BF7047B619524141EB0101A3F11D
:1030D000010370474FEA14454FEA114724EA0546B9
:1030E00021EA074C05FB07F106FB07F70CFB06F28C
:1030F0004FF0000605FB0CFC12EB074241EB1741B9
:1031000012EB0C4251EB1C4148BF7047921841EB47
:103110000101A3F10103704755494A6822F4403286
:103120004A604A6843681A434A600268526822F457
:10313000807203685A6002685368026943EA022297
:1031400003685A600268526822F0407203685A604D
:103150000268526883681A4303685A60026892687A
:1031600022F4006203689A6002689268C3681A4396
:1031700003689A603F4B826A9A4218D0026892684C
:1031800022F0706203689A6002689268836A1A4348
:1031900003689A600268926822F0405203689A605D
:1031A00002689268C36A1A4303689A600BE0026877
:1031B000926822F0706203689A600268926822F056
:1031C000405203689A600268926822F00202036823
:1031D0009A6002689368027E43EA420203689A603A
:1031E0002022125CA2B10268526842F400620368B5
:1031F0005A600268526822F4604203685A600268AA
:103200005368426A521E43EA423203685A6005E03C
:103210000268526822F4006203685A600268D26A47
:1032200022F470020368DA620268D36A828B521E4B
:1032300043EA02520368DA620268926822F400727A
:1032400003689A600268936890F8302043EA42224B
:1032500003689A600268926822F4806203689A6048
:1032600002689368426943EA822203689A60704761
:10327000002301400100000FF8B505460024002698
:1032800000200090032444F0800444F4807400BFC4
:103290002C4344F4004420128DF80000E0B28DF875
:1032A000010002226946012000F05CF8F8BD000030
:1032B00000B52DED088B81B002226946002000F098
:1032C0003FF89DF801009DF8001040EA012000B28F
:1032D00008EE100AB8EEC80A10EE100A1BF04EFAFB
:1032E00041EC1B0B9FED0B0B53EC102B1BF012F959
:1032F00041EC1A0B9FED090B53EC102B1AF00CFF4D
:1033000041EC190B1AF0C2FE00EE100A01B0BDEC40
:10331000088B00BD00000000007067400000000046
:1033200080842E4110B50A2301229021034801F028
:103330009DFC08B9012010BD0020FCE71C04002002
:10334000FEB504460D4616464FF0FF3001232246D7
:103350009021CDE900560290014801F069FDFEBDC3
:103360001C040020FEB504460D4616464FF0FF3003
:10337000012322469021CDE900560290014801F038
:10338000D1FEFEBD1C0400207047000010B50446AD
:103390002146024803F0C2FD10BD00006005002078
:1033A00010B5044803F0CDFD042801D0012010BD64
:1033B0000020FCE76005002010B5002400F014F8A0
:1033C000012801D0012010BD064803F0DBFE0446B1
:1033D00034B94FF40061034803F056FC00B10124F6
:1033E0002046F0E76005002008B5012000909DF818
:1033F000000008BD2DE9F04104460D4616460027A1
:1034000033462A462146044803F0F6FF00B101275F
:103410003846BDE8F08100006005002008B50120B5
:10342000009000231A4669460248006814F0DAFC4E
:1034300008BD0000640300202DE9F04104460D465C
:103440001646002733462A462146044804F086F8EB
:1034500000B101273846BDE8F0810000600500207A
:1034600008B50220009000231A4669460248006809
:1034700014F0B8FC08BD00006403002000BFFEE7A4
:103480000346042B15D007DC7BB1012B0ED0022B99
:103490000DD0032B12D10BE0202B0BD0212B0AD007
:1034A000222B09D0232B09D107E008E007E006E032
:1034B00005E004E003E002E001E000E000BF00BF3F
:1034C000002070470020704710B500220A490B48C1
:1034D00009F06EFA0A49094809F05FFA4FF40062F0
:1034E0000849094812F07BFF4FF480520749084809
:1034F00012F075FF002010BD582F0020500A002048
:10350000582700203C0F0020200F002058170020D3
:103510003C17002070B504460D46214606482A682F
:1035200012F0C5FF2146054809F037FA034809F0B3
:103530000FFA002070BD00003C170020500A002048
:1035400010B503460C460021084610BD10B50248D0
:1035500000F0A6FD10BD00007004002010B5024868
:1035600000F09EFD10BD00004809002010B5024883
:1035700000F096FD10BD0000A809002010B502481B
:1035800000F08EFD10BD00008808002010B5024834
:1035900000F086FD10BD0000E808002010B50248CC
:1035A00000F07EFD10BD0000D004002010B50248E0
:1035B00000F076FD10BD0000C807002010B50248DD
:1035C00000F06EFD10BD0000E405002010B50248BB
:1035D00000F066FD10BD00004406002010B5024852
:1035E00000F05EFD10BD00002808002001460878AC
:1035F00010381823B0FBF3F20848805CC865032A32
:1036000005D908686FF30900001D886503E00868A4
:103610006FF309008865886D70470000F0EA0108C3
:10362000014600208A6A8B69CBB932B1012A0DD0DC
:10363000022A03D0032A10D10EE000BFCB6A03F0A8
:103640008073B3F1807F00D1012007E0CB6AB3F132
:10365000C07F00D1012001E000E000BF34E08B69B1
:10366000B3F5005F1AD132B1012A07D0022A03D084
:10367000032A11D10AE000BF01200EE0CB6A03F05B
:103680008073B3F1807F00D1012006E0CB6AB3F1F3
:10369000C07F00D1012000E000BF15E032B1012A57
:1036A00005D0022A04D0032A0CD103E000BF00BFDA
:1036B000012008E0CB6A03F08073B3F1807F00D172
:1036C000012000E000BF00BF704730B504682468E7
:1036D00024F4802405682C60046863608468402CAE
:1036E00004D10468A2600468E16003E00468A1609A
:1036F0000468E26030BD00001048006820F080706F
:103700000E4908600846006840F0807008600C4868
:10371000006820F001000A4908600846006840F08F
:10372000010008600020486000BF00BF00BF0448DF
:10373000406808B1002070470120FCE7FCED00E084
:10374000001000E031B50948446802F0F1FE084974
:10375000B0FBF1F000994843009000BF0348406877
:10376000001B00998842F9D338BD0000001000E02A
:1037700040420F00704710B5012000F011FF10BD4E
:1037800010B5102000F00CFF10BD72B600BFFEE7B0
:1037900030B504460D4600222946204600F002F8C6
:1037A00030BD0000F0B50346012500241148407AE1
:1037B00001281CDA00200F4E767A0E4FB855384695
:1037C000467A001D40F82630001F467A08308255A0
:1037D0003E46707A461C7E72044604F13000087042
:1037E0003A2048702F2088700020C8700025284695
:1037F000F0BD0000E08C002070B504461D4600239B
:10380000B5F5804F13D154F822300C480340D1E96C
:10381000000640EA06108E6840EA06208E8940EADB
:1038200006408E693043034344F8223003E06FF0D2
:10383000704044F82200002070BD00000000F0CF6E
:1038400010B503460022086853F8202012480240B1
:10385000D1E901042043CC6820430C6920434C6922
:1038600020438C692043CC6920430C6A20434C6A76
:1038700020438C6A2043CC6A2043CC6B20430C6BE2
:10388000204302438868082801D142F040020868BA
:1038900043F82020002010BD8000F0FF30B5034623
:1038A0000024501C53F8204004F04044D1E90005A6
:1038B00040EA05108D6840EA05208D8940EA0545FB
:1038C000088A401E45EA0055087D801E45EA0060D2
:1038D0008D6928430443501C43F82040002030BD2C
:1038E00006E04FF0D0435B5C00F8013B491C521EE0
:1038F000002AF6D1704730B5C2B072B64FF4805589
:1039000000240020019012E002A99DF804208818EC
:1039100001222146FFF7E4FF0122214601A800F021
:103920002FF89DF80400401CC0B201902C442802DE
:10393000A042E9D800240020019019E0012221468C
:103940006846FFF7CDFF9DF800009DF804108842FF
:1039500000D010E002A99DF8042088180122214619
:1039600000F00EF89DF80400401CC0B201902C44F9
:103970002802A042E2D800BF62B6204642B030BD65
:1039800010B506E004784FF0D0435C54491C401C4D
:10399000521E002AF6D110BD014800687047000091
:1039A0004802002030B503460024002000251560A1
:1039B00022E000E05B1C1D7815B11D78202DF9D1A7
:1039C00000E05B1C1D7815B11D78202DF9D01D7805
:1039D0008DB1641C8C420FD1184603E015686D1C34
:1039E00015605B1C1D7815B11D78202DF6D115686A
:1039F00005B9002002E001E08C42DAD300BF30BDFF
:103A00002DE9F04704468846914601262E48006875
:103A100098BB2E482C4908602AE02B4800680068B3
:103A200007683846FDF74DF805462A4639462046D0
:103A3000FDF766F8B8B9605D202801D0605D90B9E7
:103A400021480068006890F90C0000280ADB204635
:103A500015F054F91C490968096891F90C1088425D
:103A600000D0002608E01848006840681649086041
:103A7000154800680028D0D100BF1348006848B13D
:103A800046B94A4612494046FDF759F900200E4909
:103A9000086016E00C48006868B10B4800680068D0
:103AA0002246494683684046984706464EB900205C
:103AB0000549086005E04A4606494046FDF73FF9DA
:103AC00000263046BDE8F087F8020020EC02002016
:103AD000A0FB0108F8FB010870B50546002655B9A2
:103AE00000BF502080F31188BFF34F8FBFF36F8F5B
:103AF00000BF00BFFEE7082016F0C0FC044654B922
:103B000000BF502080F31188BFF34F8FBFF36F8F3A
:103B100000BF00BFFEE764B117F048FC256000203D
:103B200060600548006844600348046017F068FC62
:103B30000126304670BD0000F402002070B50A482E
:103B40000468001D0568001D0668344454B108224D
:103B50000649204606F0CCF80422044910312846D4
:103B600006F0C6F870BD0000107AFF1F6E0000203E
:103B700038B502460020009000BF92F83C000128B2
:103B800001D1022038BD012082F83C0000BF086846
:103B9000092816D91068C0680C780A3C04EB440563
:103BA0000724AC40A0431468E0600C780A3C04EBA6
:103BB00044048868A0401468E46820431468E06006
:103BC00013E0106800690C7804EB44050724AC404E
:103BD000A043146820610C7804EB44048868A0407A
:103BE000146824692043146820614868072817D2A4
:103BF0001068406B0C79641E04EB84051F24AC40F4
:103C0000A04314686063088880B20C79641E04EBDA
:103C10008404A0401468646B20431468606331E03E
:103C200048680D2817D21068006B0C79E41F04EB6C
:103C300084051F24AC40A04314682063088880B228
:103C40000C79E41F04EB8404A0401468246B204327
:103C50001468206316E01068C06A0C790D3C04EB10
:103C600084051F24AC40A0431468E062088880B239
:103C70000C790D3C04EB8404A0401468E46A2043F2
:103C80001468E062194B1A4C1068A04206D108680B
:103C9000122803D1586840F480005860144C106812
:103CA000A0421CD10868102802D00868112816D13B
:103CB000586840F400005860086810280FD10D487B
:103CC00000680D4CB0FBF4F000EB80004000009069
:103CD00002E00098401E009000980028F9D100BF33
:103CE000002082F83C0000BF00BF4BE700230140EA
:103CF00000200140A800002040420F000146086853
:103D0000C06C704770B5044600250CB9012070BD29
:103D10001549A06A884200D000BF206C30B9204607
:103D200000F024F80020606484F83C00206C00F06F
:103D3000100088B9206C20F4885040F00200206404
:103D40002046FFF7E9F900206064206C20F00200B3
:103D500040F00100206400E0012500BF002084F84D
:103D60003C0000BF2846D2E70100000F08B50A4A10
:103D7000016891420FD100BF0021009107490968F5
:103D800041F48071054A11601146096801F480719F
:103D9000009100BF00BF08BD002001404438024030
:103DA00070B504460D4600262068806800F48060E7
:103DB000B0F5806F11D12068806800F48070B0F594
:103DC000807F0AD1206C40F02000206400BF0020DA
:103DD00084F83C0000BF012070BD00F0FFFC0646E7
:103DE00018E0681CB0B125B100F0F8FC801BA842B7
:103DF00010D92068006800F0020002280AD0206C68
:103E000040F00400206400BF002084F83C0000BFA4
:103E10000320E1E72068006800F002000228E0D1FA
:103E20006FF0120021680860206C40F4007020647C
:103E30002068806800F04050B8B9207EA8B920689A
:103E4000C06A00F4700020B12068806800F48060CF
:103E500058B9206C20F480702064206C00F48050ED
:103E600018B9206C40F0010020640020B4E7000085
:103E700008B501460020009000BF91F83C000128E1
:103E800001D1022008BD012081F83C0000BF086874
:103E9000806800F00100A0B90868806840F0010067
:103EA0000B6898603F4800683F4BB0FBF3F000EBB5
:103EB0004000009002E00098401E0090009800280A
:103EC000F9D10868806800F00100002860D0086C13
:103ED00040F20163984340F48070086408684068C9
:103EE00000F4806028B1086C20F4005040F4805049
:103EF0000864086C00F48050B0F5805F04D1486C11
:103F000020F00600486401E00020486400BF002063
:103F100081F83C0000BF254A6FF022000B68186052
:103F2000506800F01F0018BB214B0868984213D05E
:103F3000204B0868984204D1101D006800F01F0053
:103F400050B11D4B086898422AD11848001D0068DE
:103F500000F01F00102823D20868806800F040504D
:103F6000F0B90868806840F080400B68986017E0FE
:103F70000F4B0868984213D10868806800F04050E1
:103F800070B90868806840F080400B68986007E06E
:103F9000086C40F010000864486C40F00100486470
:103FA00000206FE7A800002040420F0000230140DE
:103FB00000200140002101400022014070B504466C
:103FC000A56D00F00BFC064694F83500022808D0D9
:103FD0008020606500BF002084F8340000BF01200D
:103FE00070BD2068006820F0160021680860206815
:103FF000406920F0800021684861206C08B9A06CFD
:1040000028B12068006820F0080021680860206856
:10401000006820F001002168086010E000F0DEFB7D
:10402000801B05280BD920206065032084F835000B
:1040300000BF002084F8340000BF0320D0E72068D0
:10404000006800F001000028E8D194F85C103F20DF
:104050008840A860012084F8350000BF002084F863
:10406000340000BF00BFBBE7014691F835000228CD
:1040700003D08020486501207047052081F8350075
:104080000868006820F001000A6810600020F3E76B
:104090000146486D7047014691F8350070470000B1
:1040A000F8B50446002000908C4800684FF4165183
:1040B000B0FBF1F7A56D2E6894F85C1008208840DD
:1040C000304098B12068006800F0040070B12068AA
:1040D000006820F004002168086094F85C10082053
:1040E0008840A860606D40F00100606594F85C1045
:1040F00001208840304068B12068406900F08000AD
:1041000040B194F85C1001208840A860606D40F0D8
:104110000200606594F85C1004208840304068B16B
:104120002068006800F0020040B194F85C100420A0
:104130008840A860606D40F00400606594F85C10F1
:1041400010208840304078B32068006800F00800F4
:1041500050B394F85C1010208840A8602068006874
:1041600000F4802080B12068006800F4002028B9A5
:10417000206CC8B12046216C884715E0A06C98B12E
:104180002046A16C88470FE02068006800F480702A
:1041900028B92068006820F0080021680860206CB9
:1041A00010B12046216C884794F85C10202088408C
:1041B0003040002865D02068006800F0100000281A
:1041C0005FD094F85C1020208840A86094F83500F7
:1041D000052828D12068006820F0160021680860B2
:1041E0002068406920F0800021684861206C08B98F
:1041F000A06C28B12068006820F0080021680860E1
:1042000094F85C103F208840A860012084F83500B5
:1042100000BF002084F8340000BF206D10B120469C
:10422000216D8847F8BD2068006800F4802080B1C7
:104230002068006800F4002028B9606C10B12046A6
:10424000616C88471DE0E06BD8B12046E16B884780
:1042500017E02068006800F4807068B92068006882
:1042600020F0100021680860012084F8350000BFAC
:10427000002084F8340000BFE06B10B12046E16BF1
:104280008847606D38B3606D00F00100F0B1052023
:1042900084F835002068006820F00100216808607B
:1042A00000BF0098401C0090B84200D905E020688B
:1042B000006800F001000028F3D100BF012084F85D
:1042C000350000BF002084F8340000BFE06C10B15E
:1042D0002046E16C884700BFA4E70000A80000204A
:1042E0002DE9F0410446002500F078FA074614B99C
:1042F0000120BDE8F081606A00B100BF022084F8AF
:10430000350000BF002084F8340000BF206800683A
:1043100020F00100216808600AE000F05FFAC01B8D
:10432000052805D920206065032084F83500E0E7E2
:104330002068006800F001000028EED120680568C0
:1043400021480540D4E901010843E1680843216997
:10435000084361690843A1690843E1690843216A88
:1043600008430543606A042803D1D4E90B010843DC
:104370000543206805602068456925F00705606AE7
:104380000543606A04280DD1A06A0543E06A48B17C
:104390002046FFF745F928B140206065012084F8E8
:1043A0003500A6E7206845612046FFF71FF906465D
:1043B00094F85C103F208840B060002060650120C8
:1043C00084F83500002094E73F8010F02DE9F04795
:1043D00004460D4616461F464FF00008D4F8589084
:1043E00000BF94F83400012802D10220BDE8F08714
:1043F000012084F8340000BF94F83500012825D14D
:10440000022084F83500002060653B46324629468C
:104410002046FFF75AF994F85C103F208840C9F80D
:1044200008002068006840F0160021680860206CD1
:1044300028B12068006840F0080021680860206802
:10444000006840F001002168086006E000BF00201D
:1044500084F8340000BF4FF002084046C6E7000071
:1044600070B5044600F0BAF906462546681C10B13E
:1044700004480078054400BF00F0B0F9801BA84252
:10448000FAD370BDA400002000B587B0142102A8A3
:10449000FCF72EFC2A48006808B107B000BD0120D7
:1044A0002749086000BF002001902648006840F0BE
:1044B0000100244908600846006800F001000190EE
:1044C00000BF00BF4FF23F00029002200390002087
:1044D0000490032005900C20069002A91A4800F0D1
:1044E0006DF840F23F4002900220039000200490BB
:1044F000032005900C20069002A9144800F05EF8F5
:104500004FF6837002900220039000200490032055
:1045100005900C20069002A90D4800F04FF84FF6C8
:104520003370029002200390002004900320059035
:104530000C20069002A9074800F040F800BFACE745
:1045400030000020383802400014024000180240B9
:1045500000100240000C024010B50446102C0AD195
:104560000C48006838B100200A49086001210A4857
:10457000006813F083FA012C0AD10848006838B1AA
:1045800000200649086002210348006813F076FA0B
:1045900010BD0000CC0200202C000020D002002022
:1045A00010B5044604480068204020B10248046069
:1045B0002046FFF7D1FF10BD143C0140F8B502467C
:1045C0000B460025002400200021D5E0012606FA34
:1045D00001F51E6806EA0504AC4274D11E7906F0A6
:1045E0000306012E04D01E7906F00306022E13D115
:1045F00090684F000326BE40B0434F00DE68BE40C7
:1046000030439060506801268E40B0431E79C6F357
:1046100000168E40304350601E7906F00306032ECC
:1046200009D0D0684F000326BE40B0434F009E68BB
:10463000BE403043D0601E7906F00306022E13D12F
:10464000CF0802F1200656F827004E07F70E0F2676
:10465000BE40B0434F07FF0E1E69BE403043CF0837
:1046600002F1200646F8270010684F000326BE40DE
:10467000B0431E7906F003064F00BE403043106081
:104680005E6806F44036002E75D000BF0026009606
:104690003B4E366846F48046394F3E603E463668AB
:1046A00006F48046009600BF00BF364E8F0856F8CD
:1046B00027008E07370F0F26BE40B043324EB2425E
:1046C00002D1002624E056E0304EB24201D101264C
:1046D0001EE02F4EB24201D1022619E02D4EB24209
:1046E00001D1032614E02C4EB24201D104260FE082
:1046F0002A4EB24201D105260AE0294EB24201D12A
:10470000062605E0274EB24201D1072600E0082622
:104710008F073F0FBE4030431A4E8F0846F82700E0
:10472000214E3068A0435E6806F4803606B120430F
:104730001D4E3060361D3068A0435E6806F40036BA
:1047400006B12043184E361D3060361D3068A04338
:104750005E6806F4801606B12043134E08363060BA
:10476000361D3068A0435E6806F4001606B120438B
:104770000D4E0C363060491C1029FFF427AFF8BDF0
:104780004438024008380140000002400004024062
:1047900000080240000C02400010024000140240D9
:1047A00000180240001C0240003C01400246136910
:1047B0000B400BB1012000E00020704710B54269AA
:1047C00021EA020302EA010443EA0443836110BDC3
:1047D0000AB1816101E00B04836170470148006800
:1047E000704700009C000020704770472DE9F84F8B
:1047F0000446206847692068D0F80480002594F8B2
:104800003E90C7F3002040B1C8F3002028B145F026
:1048100001056FF4807021684861C7F3402040B102
:10482000C8F3002028B145F002056FF4007021683C
:104830004861C7F3802070B3C8F3002058B3CA465C
:10484000B4F82AB094F83D60206B0090BAF1200FC4
:104850000FD1BBF1000F0CD1212E06D0292E04D090
:10486000282E06D10098212803D1204604F0C0FF4D
:1048700011E06FF480602168486145F00405B9F1EA
:10488000100F02D0B9F1400F05D12068006840F444
:10489000007021680860C7F3C02040B1C8F3002051
:1048A00028B145F008056FF40060216848612DB11A
:1048B000206C28432064204604F036F9BDE8F88FC8
:1048C0002DE9F04705464FF0000928684668D5F8FD
:1048D0002CA095F83E7095F83D80102F01D0402F08
:1048E00075D12868D0F818902868446904F0010050
:1048F00060B9BAF52A0F02D0BAF12A4F01D10120CE
:1049000000E00020012801D1BDE8F08704F001009B
:1049100048B1C6F3402030B1284604F07BF8284661
:1049200004F000FDB7E0C4F3C00030B1C6F340208E
:1049300018B1284604F0ADFBADE0C4F3400030B13F
:10494000C6F3402018B1284604F0B8FBA3E0C9F331
:10495000800040B32868406800F40060B0F5006F44
:10496000E0D0C4F3C01048B1C6F3802030B1C4F326
:10497000800018B9284604F020FB8CE0C4F38000C6
:104980000028CFD0C6F340200028CBD0B8F1210FAB
:1049900003D1284604F0C1FA7DE0402F7BD12846A0
:1049A00004F00FFD77E02868406800F40060B0F57F
:1049B000006F70D0C4F3801050B1C6F3802038B1BE
:1049C000C4F3800020B9284604F036FA63E00BE017
:1049D000C4F3800000285ED0C6F3402000285AD0DF
:1049E000284604F096F956E0286C10B1286844690E
:1049F00004E02868D0F8189028684469C4F340009F
:104A000060B1C6F3402048B1286C10B12868D0F8D6
:104A100018904946284604F0B3FE3CE0C4F3001069
:104A200030B1C6F3402018B1284604F031FF32E01F
:104A3000B8F1210F02D0B8F1290F16D1C4F3C0107C
:104A400048B1C6F3802030B1C4F3800018B92846BD
:104A500004F073FE1FE0C4F38000E0B1C6F3402011
:104A6000C8B1284604F05CFE15E0C4F3801048B1DC
:104A7000C6F3802030B1C4F3800018B9284604F092
:104A80002CFE08E0C4F3800028B1C6F3402010B12A
:104A9000284604F015FE00BF36E7704770B504469F
:104AA0000CB9012070BD94F83D0028B9002084F8AD
:104AB0003C00204600F0E8FB242084F83D002068FC
:104AC000006820F00100216808602068006840F458
:104AD0000040216808602068006820F400402168D8
:104AE000086001F02BFD05465C496068884206D8E5
:104AF0005B48854201D2012007E0002005E05948CB
:104B0000854201D2012000E00020012800D1C9E740
:104B10005548B5FBF0F62068406820F03F00304370
:104B2000216848604D496068884201D8701C07E0E0
:104B30004FF4967070434FF47A71B0FBF1F0401C63
:104B40002168096A21F03F0108432168086243494E
:104B50006068884214D8681E61684900B0FBF1F0B3
:104B6000401CC0F30B00042801D204203DE0681E65
:104B700061684900B0FBF1F0401CC0F30B0034E069
:104B8000A06838B9681E616801EB4101B0FBF1F023
:104B9000401C0AE0681E616801EBC10202EB0111D2
:104BA000B0FBF1F0401C40F48040C0F30B0008B9AA
:104BB00001201AE0A06848B9681E616801EB410154
:104BC000B0FBF1F0401CC0F30B000CE0681E616804
:104BD00001EBC10202EB0111B0FBF1F0401CC0F38C
:104BE0000B0040F4804040F400402168C9694CF655
:104BF000FF72914308432168C861D4E90701084363
:104C00002168096821F0C001084321680860D4E9DF
:104C1000031008432168896848F2FF329143084332
:104C200021688860D4E9050108432168C96821F03A
:104C3000FF0108432168C8602068006840F0010057
:104C40002168086000202064202084F83D000020B6
:104C5000206384F83E0000BF24E70000A086010026
:104C600080841E0000093D0040420F002DE9F84FEE
:104C700004460F4690461E46FFF7B0FD05464FF02E
:104C8000010994F83D0020287ED1192301226349AF
:104C90002046009504F0F0FE10B10220BDE8F88F28
:104CA00000BF94F83C00012801D10220F6E7012062
:104CB00084F83C0000BF2068006800F0010028B9BB
:104CC0002068006840F001002168086020680068E2
:104CD00020F4006021680860242084F83D00002052
:104CE00020644F48E06200BF2068006840F4807094
:104CF00021680860334600224FF0011120460095DC
:104D000004F0BAFE58B12068006800F48070B0F575
:104D1000807F02D14FF4007020640320BEE707F0CB
:104D2000FE0021680861FFF759FD054620684069CB
:104D3000C0F3400A20684069C0F3802B10E0FFF701
:104D40004DFD401BB04200D816B9A02084F83D00AC
:104D500020684069C0F3400A20684069C0F3802B96
:104D600094F83D00A02805D0BAF1000F02D1BBF1A4
:104D7000000FE4D0202084F83D0020684069C0F393
:104D8000400028B3206800E045E0006840F400706F
:104D90002168086000BF00200090206840690090F2
:104DA00020688069009000BF00BF192301221B49C1
:104DB0002046009504F060FE08B101206EE7202037
:104DC00084F83D0000BF002084F83C0000BF65E788
:104DD0002068006840F40070216808606FF480600B
:104DE00021684861192301220C492046009504F0EE
:104DF00043FE08B1012051E709F10109C145FFF463
:104E000073AF202084F83D0000BF002084F83C00F0
:104E100000BF012042E7022040E70000020010002E
:104E20000000FFFF704770477047704770470000F1
:104E30002DE9FC5F04460F4690469946DDE90CAB30
:104E40000E9EFFF7CBFC054694F83D00202870D15C
:104E500019230122B0492046009504F00DFE10B13F
:104E60000220BDE8FC9F00BF94F83C00012801D15E
:104E70000220F6E7012084F83C0000BF20680068AB
:104E800000F0010028B92068006840F001002168A6
:104E900008602068006820F4006021680860222013
:104EA00084F83D00402084F83E0000202064C4F8CF
:104EB00024A0A4F82AB0608D20859848E0624B4673
:104EC000424639462046CDE9006504F0D9FA08B1DA
:104ED0000120C6E7208D88B900BF0020019020681E
:104EE0004069019020688069019000BF00BF206880
:104EF000006840F400702168086040E0208D0128BF
:104F000018D12068006820F480602168086000BF24
:104F1000002001902068406901902068806901901C
:104F200000BF00BF2068006840F40070216808607E
:104F300025E0EFE0208D022816D12068006820F4DB
:104F40008060216808602068006840F40060216883
:104F5000086000BF0020019020684069019020682F
:104F60008069019000BF0AE000BF00200190206826
:104F70004069019020688069019000BF00BFBAE0DD
:104F8000208D03287ED8208D012815D12A46314650
:104F9000204604F016FE08B1012062E7206800698F
:104FA000616A0870606A401C6062208D401E208526
:104FB000608D401E60859EE0208D02282AD13346F8
:104FC000002257492046009504F056FD08B1012003
:104FD00047E72068006840F4007021680860206896
:104FE0000069616A0870606A401C6062208D401E22
:104FF0002085608D401E608520680069616A0870A8
:10500000606A401C6062208D401E2085608D401EBD
:10501000608570E03346002241492046009504F047
:105020002BFD08B101201CE72068006820F4806097
:105030002168086020680069616A0870606A401C25
:105040006062208D401E2085608D401E6085334645
:10505000002233492046009504F00EFD08B10120DE
:10506000FFE62068006840F400702168086020684E
:105070000069616A0870606A401C6062208D401E91
:10508000208500E010E0608D401E6085206800698A
:10509000616A0870606A401C6062208D401E208535
:1050A000608D401E608526E02A463146204604F089
:1050B00088FD08B10120D4E620680069616A0870A3
:1050C000606A401C6062208D401E2085608D401EFD
:1050D000608520684069C0F3800060B12068006985
:1050E000616A0870606A401C6062208D401E2085E5
:1050F000608D401E6085208D00287FF441AF202008
:1051000084F83D00002084F83E0000BF84F83C0095
:1051100000BFA6E60220A4E6020010000000FFFF88
:10512000040001002DE9FC5F04460F4690469946B5
:10513000DDE90CAB0E9EFFF751FB054694F83D00F0
:1051400020287DD1192301224D492046009504F0E5
:1051500093FC10B10220BDE8FC9F00BF94F83C0016
:10516000012801D10220F6E7012084F83C0000BFAD
:105170002068006800F0010028B92068006840F04D
:105180000100216808602068006820F40060216840
:105190000860212084F83D00402084F83E00002073
:1051A0002064C4F824A0A4F82AB0608D2085354876
:1051B000E0624B46424639462046CDE9006504F0A0
:1051C0000FFA08B10120C6E731E02A4631462046F1
:1051D00004F060FD50B1206C042805D120680068FF
:1051E00040F40070216808600120B4E7606A00782C
:1051F00021680861606A401C6062208D401E208525
:10520000608D401E608520684069C0F3800070B1E9
:10521000208D60B1606A007821680861606A401C76
:105220006062208D401E2085608D401E6085208D2F
:105230000028CAD12A463146204604F0EFFB00E0A0
:105240001CE050B1206C042805D12068006840F4AF
:1052500000702168086001207DE72068006840F444
:10526000007021680860202084F83D00002084F848
:105270003E0000BF84F83C0000BF6CE702206AE7F4
:10528000020010000000FFFF10B586B00446142194
:1052900001A8FBF72DFD4049206888427AD100BF64
:1052A000002000903D48006840F002003B49086043
:1052B0000846006800F00200009000BF00BFC02058
:1052C00001901220029000200390032004900420FB
:1052D000059001A93248FFF771F900BF0020009046
:1052E0002E481030006840F400102C49103108603E
:1052F0000846006800F40010009000BF00BF294875
:105300002949086040054860002127488160C16044
:105310004FF480610161002141618161C1610162DD
:105320004162FEF7DDFF08B1FEF72FFA00BF1E480D
:10533000A063846300BF1B48A8301C4908604FF07D
:10534000007048604021194881600021C1604FF41D
:1053500080610161002141618161C161016241623D
:10536000FEF7BEFF08B1FEF710FA00BF0F486063FA
:10537000846300BF002205211F2000F0C5F81F2014
:1053800000F0B2F800220521202000F0BDF8202016
:1053900000F0AAF806B010BD0054004030380240BA
:1053A000000402401060024070040020D00400207D
:1053B0007047704703480068034909780844014969
:1053C000086070479C000020A400002010B50D4824
:1053D000006840F400700B4908600846006840F41B
:1053E000806008600846006840F480700860032010
:1053F00000F0C8F8002000F007F800F04BF800209B
:1054000010BD0000003C024070B588B00446002585
:105410000026002221462D2000F076F82D2000F0F5
:1054200063F800BF002001901648006840F48070C7
:10543000144908600846006800F48070019000BFBD
:1054400000BF02A903A801F051F801F077F8450068
:105450000D48B5FBF0F0461E0C480D49086040F2BF
:10546000E7310B48C160466000210161816002F0B4
:105470009EFC20B9064802F0CFFC08B070BD0120A8
:10548000FBE700004038024040420F00002000408F
:10549000080A002008B500BF0020009011480068ED
:1054A00040F480400F4908600846006800F48040DE
:1054B000009000BF00BF00BF00200090081F0068E0
:1054C00040F08050091F08600846006800F08050D6
:1054D000009000BF00BF00220F21901E00F014F8C2
:1054E00008BD00004438024001460846002809DB98
:1054F00000F01F0301229A4043099B0003F1E023BF
:10550000C3F8002100BF70472DE9F05F80460D46CB
:10551000164600270DF008F9074639462A46334655
:1055200001F00700C0F1070ABAF1040F02D94FF0E9
:10553000040A01E0C0F1070AD14600F1040ABAF1F9
:10554000070F02D24FF0000A01E0A0F1030AD4468F
:105550004FF0010A0AFA09FAAAF1010A0AEA020A54
:105560000AFA0CFA4FF0010B0BFA0CFBABF1010B32
:105570000BEA030B4AEA0B04214640460DF0DCF827
:10558000BDE8F09F00BF00F00702064B19684FF618
:10559000FF031940044B0B4343EA0221014B1960FE
:1055A00000BF70470CED00E00000FA0570470246AE
:1055B0001068416200207047F0B503461546186830
:1055C000446A21B944EA05401E68B06219E01868CF
:1055D000806A04EB1044002208E0186800F582702D
:1055E00050F8220004EB1044501CC2B2481E9042F6
:1055F000F3D844EA0547186800F582704E1E40F85B
:1056000026700020F0BD10B50446D4F8040407F05D
:105610003DFE10BD70B504460D46C5EBC50304F153
:105620003C0101EB8301CA682946D4F8040407F061
:1056300075FD70BD70B504460D46C5EBC50304F598
:10564000FE7101EB8301CA682946D4F8040407F00F
:10565000D6FD70BD10B50446D4F8040407F019FE59
:1056600010BD70B504460E4606F0800080280AD1B1
:1056700006F00F00C0EBC00104F13C0000EB810517
:105680000120687009E006F00F00C0EBC00104F5CE
:10569000FE7000EB81050020687006F00F00287096
:1056A00000BF94F8BC03012801D1022070BD012085
:1056B00084F8BC0300BF2946206808F03BFB00BF0C
:1056C000002084F8BC0300BF00BFEFE770B50446BC
:1056D0000E4606F00F006168884201D9012070BDB6
:1056E00006F0800080280AD106F00F00C0EBC00150
:1056F00004F13C0000EB81050120687009E006F030
:105700000F00C0EBC00104F5FE7000EB8105002026
:1057100068700020A87006F00F00287000BF94F891
:10572000BC03012801D10220D9E7012084F8BC0381
:1057300000BF2946206808F0E3FD00BF002084F880
:10574000BC0300BF00BFCAE7024601F00F00C0EB78
:10575000C00302F5FE7000EB8300806970472DE9FD
:10576000F04705460E4690461F464FF0000906F0EA
:10577000800080280AD106F00F00C0EBC00105F1BF
:105780003C0000EB81040120607009E006F00F008E
:10579000C0EBC00105F5FE7000EB810400206070D5
:1057A00006F00F002070C4F80880E770607808B138
:1057B0002078E080022F01D10020207100BF95F8F1
:1057C000BC03012802D10220BDE8F087012085F842
:1057D000BC0300BF2146286808F0C4F900BF0020C0
:1057E00085F8BC0300BF4846EEE72DE9F0410446CA
:1057F0000E461746984606F00F00C0EBC00104F5B0
:10580000FE7000EB8105EF60C5F814800020A861F0
:10581000687006F00F0028702069012800D12F6100
:1058200006F00F0028B9227C2946206808F044FCC5
:1058300004E0227C2946206808F0F6FD0020BDE83F
:10584000F08170B504460D4605F00F00616888428E
:1058500001D9012070BD05F0800080280AD105F033
:105860000F00C0EBC00104F13C0000EB81060120F9
:10587000707007E0C5EBC50104F5FE7000EB810612
:10588000002070700120B07005F00F00307000BF74
:1058900094F8BC03012801D10220DBE7012084F841
:1058A000BC0300BF3146206808F071FD05F00F0011
:1058B00028B9217C04F57172206808F0E9FC00BF6A
:1058C000002084F8BC0300BF00BFC3E72DE9F0410E
:1058D00004460E461746984606F00F00C0EBC0017E
:1058E00004F13C0000EB8105EF60C5F81480002056
:1058F000A8610120687006F00F0028702069012857
:1059000000D12F6106F00F0028B9227C29462068BB
:1059100008F0D2FB04E0227C2946206808F084FDD0
:105920000020BDE8F0812DE9FE4F0446206802907A
:10593000029D206808F067FF00287DD1206808F0EC
:10594000A1FF08B9BDE8FE8F206808F09BFF00F0BA
:105950000200022805D12068406900F00200216899
:105960004861206808F08EFF00F01000102846D132
:105970002068806920F01000216888610298D0F8C2
:10598000209009F00F00C0EBC00104F5FE7000EBA1
:10599000810AC9F3434002281AD147F6F07009EA98
:1059A000000030B3C9F30A12DAF80C10029808F0BC
:1059B0006EFFC9F30A11DAF80C000844CAF80C00AB
:1059C000C9F30A11DAF818000844CAF8180010E000
:1059D000C9F3434006280CD1082204F571710298DE
:1059E00008F055FFC9F30A11DAF818000844CAF89C
:1059F00018002068806940F01000216888612068E4
:105A000008F040FF00F40020B0F5002F52D100262E
:105A1000206808F007FF834649E00BF00100E8B377
:105A2000F1B2206808F021FF804608F0010058B16B
:105A3000012105F5306000E021E200EB46108160B5
:105A40003146204604F06AFD08F00800082809D114
:105A5000082105F5306000EB461081603146204694
:105A600004F02AFD08F01000102805D1102105F5DA
:105A7000306000EB4610816008F02000202805D13E
:105A8000202105F5306000EB4610816008F40050DD
:105A9000B0F5005F08D14FF4005100E004E005F5D7
:105AA000306000EB46108160761C4FEA5B0BBBF167
:105AB000000FB2D1206808F0E5FE00F48020B0F5B8
:105AC000802F7ED1206808F0A3FE8346002683E065
:105AD0000BF0010000287CD0F1B2206808F0ACFE89
